{
  "_format": "hh3-artifact-1",
  "contractName": "EscrowStaking",
  "sourceName": "contracts/EscrowStaking.sol",
  "abi": [
    {
      "inputs": [
        {
          "internalType": "address",
          "name": "_escrowToken",
          "type": "address"
        },
        {
          "internalType": "address",
          "name": "_ethUsdPriceFeed",
          "type": "address"
        },
        {
          "internalType": "address",
          "name": "initialOwner",
          "type": "address"
        }
      ],
      "stateMutability": "nonpayable",
      "type": "constructor"
    },
    {
      "inputs": [
        {
          "internalType": "address",
          "name": "owner",
          "type": "address"
        }
      ],
      "name": "OwnableInvalidOwner",
      "type": "error"
    },
    {
      "inputs": [
        {
          "internalType": "address",
          "name": "account",
          "type": "address"
        }
      ],
      "name": "OwnableUnauthorizedAccount",
      "type": "error"
    },
    {
      "inputs": [],
      "name": "ReentrancyGuardReentrantCall",
      "type": "error"
    },
    {
      "anonymous": false,
      "inputs": [
        {
          "indexed": true,
          "internalType": "address",
          "name": "previousOwner",
          "type": "address"
        },
        {
          "indexed": true,
          "internalType": "address",
          "name": "newOwner",
          "type": "address"
        }
      ],
      "name": "OwnershipTransferred",
      "type": "event"
    },
    {
      "anonymous": false,
      "inputs": [
        {
          "indexed": true,
          "internalType": "address",
          "name": "newFeed",
          "type": "address"
        }
      ],
      "name": "PriceFeedUpdated",
      "type": "event"
    },
    {
      "anonymous": false,
      "inputs": [
        {
          "indexed": true,
          "internalType": "address",
          "name": "user",
          "type": "address"
        },
        {
          "indexed": false,
          "internalType": "uint256",
          "name": "rewardAmount",
          "type": "uint256"
        },
        {
          "indexed": false,
          "internalType": "uint256",
          "name": "ethPrice",
          "type": "uint256"
        }
      ],
      "name": "RewardsClaimed",
      "type": "event"
    },
    {
      "anonymous": false,
      "inputs": [
        {
          "indexed": true,
          "internalType": "address",
          "name": "user",
          "type": "address"
        },
        {
          "indexed": false,
          "internalType": "uint256",
          "name": "amount",
          "type": "uint256"
        }
      ],
      "name": "Staked",
      "type": "event"
    },
    {
      "anonymous": false,
      "inputs": [
        {
          "indexed": true,
          "internalType": "address",
          "name": "user",
          "type": "address"
        },
        {
          "indexed": false,
          "internalType": "uint256",
          "name": "amount",
          "type": "uint256"
        }
      ],
      "name": "Unstaked",
      "type": "event"
    },
    {
      "inputs": [],
      "name": "APY_BASE",
      "outputs": [
        {
          "internalType": "uint256",
          "name": "",
          "type": "uint256"
        }
      ],
      "stateMutability": "view",
      "type": "function"
    },
    {
      "inputs": [],
      "name": "MAX_APY",
      "outputs": [
        {
          "internalType": "uint256",
          "name": "",
          "type": "uint256"
        }
      ],
      "stateMutability": "view",
      "type": "function"
    },
    {
      "inputs": [],
      "name": "PRECO_ETH_REFERENCIA",
      "outputs": [
        {
          "internalType": "uint256",
          "name": "",
          "type": "uint256"
        }
      ],
      "stateMutability": "view",
      "type": "function"
    },
    {
      "inputs": [],
      "name": "SECONDS_PER_YEAR",
      "outputs": [
        {
          "internalType": "uint256",
          "name": "",
          "type": "uint256"
        }
      ],
      "stateMutability": "view",
      "type": "function"
    },
    {
      "inputs": [],
      "name": "claimRewards",
      "outputs": [],
      "stateMutability": "nonpayable",
      "type": "function"
    },
    {
      "inputs": [],
      "name": "escrowToken",
      "outputs": [
        {
          "internalType": "contract EscrowToken",
          "name": "",
          "type": "address"
        }
      ],
      "stateMutability": "view",
      "type": "function"
    },
    {
      "inputs": [],
      "name": "ethUsdPriceFeed",
      "outputs": [
        {
          "internalType": "contract AggregatorV3Interface",
          "name": "",
          "type": "address"
        }
      ],
      "stateMutability": "view",
      "type": "function"
    },
    {
      "inputs": [],
      "name": "getEthPrice",
      "outputs": [
        {
          "internalType": "uint256",
          "name": "",
          "type": "uint256"
        }
      ],
      "stateMutability": "view",
      "type": "function"
    },
    {
      "inputs": [
        {
          "internalType": "address",
          "name": "user",
          "type": "address"
        }
      ],
      "name": "getUserStakeInfo",
      "outputs": [
        {
          "internalType": "uint256",
          "name": "stakedAmount",
          "type": "uint256"
        },
        {
          "internalType": "uint256",
          "name": "pendingRewards",
          "type": "uint256"
        },
        {
          "internalType": "uint256",
          "name": "rewardDebt",
          "type": "uint256"
        },
        {
          "internalType": "uint256",
          "name": "currentEthPrice",
          "type": "uint256"
        },
        {
          "internalType": "uint256",
          "name": "currentApy",
          "type": "uint256"
        }
      ],
      "stateMutability": "view",
      "type": "function"
    },
    {
      "inputs": [],
      "name": "owner",
      "outputs": [
        {
          "internalType": "address",
          "name": "",
          "type": "address"
        }
      ],
      "stateMutability": "view",
      "type": "function"
    },
    {
      "inputs": [],
      "name": "renounceOwnership",
      "outputs": [],
      "stateMutability": "nonpayable",
      "type": "function"
    },
    {
      "inputs": [
        {
          "internalType": "uint256",
          "name": "amount",
          "type": "uint256"
        }
      ],
      "name": "stake",
      "outputs": [],
      "stateMutability": "nonpayable",
      "type": "function"
    },
    {
      "inputs": [
        {
          "internalType": "address",
          "name": "",
          "type": "address"
        }
      ],
      "name": "stakes",
      "outputs": [
        {
          "internalType": "uint256",
          "name": "amount",
          "type": "uint256"
        },
        {
          "internalType": "uint256",
          "name": "stakedAt",
          "type": "uint256"
        },
        {
          "internalType": "uint256",
          "name": "rewardDebt",
          "type": "uint256"
        }
      ],
      "stateMutability": "view",
      "type": "function"
    },
    {
      "inputs": [],
      "name": "totalStaked",
      "outputs": [
        {
          "internalType": "uint256",
          "name": "",
          "type": "uint256"
        }
      ],
      "stateMutability": "view",
      "type": "function"
    },
    {
      "inputs": [
        {
          "internalType": "address",
          "name": "newOwner",
          "type": "address"
        }
      ],
      "name": "transferOwnership",
      "outputs": [],
      "stateMutability": "nonpayable",
      "type": "function"
    },
    {
      "inputs": [
        {
          "internalType": "uint256",
          "name": "amount",
          "type": "uint256"
        }
      ],
      "name": "unstake",
      "outputs": [],
      "stateMutability": "nonpayable",
      "type": "function"
    }
  ],
  "bytecode": "0x60c03461013a57601f610e0e38819003918201601f19168301916001600160401b0383118484101761013e5780849260609460405283398101031261013a5761004781610152565b90610060604061005960208401610152565b9201610152565b60017f9b779b17422d0df92223018b32b4d1fa46e071723d6817e2486d003becc55f00556001600160a01b0316918215610127575f80546001600160a01b031981168517825560405194916001600160a01b03909116907f8be0079c531659141344cd1fd0a4f28419497f9722a3daafe3b4186f6b6457e09080a36001600160a01b039081166080521660a052610ca7908161016782396080518181816102c30152818161052a015281816106780152610732015260a0518181816104980152610a4c0152f35b631e4fbdf760e01b5f525f60045260245ffd5b5f80fd5b634e487b7160e01b5f52604160045260245ffd5b51906001600160a01b038216820361013a5756fe6080806040526004361015610012575f80fd5b5f905f3560e01c90816316934fc414610866575080632e17de78146106a75780632fe319da14610663578063363e249d14610647578063372500ab146104e35780633d92f4e2146104c757806342f6fb291461048257806367c9b0171461045f578063715018a614610405578063817b1cd2146103e75780638da5cb5b146103c0578063a694fc3a14610241578063c32d3ae214610199578063e6a69ab81461017a578063f2fde38b146100ec5763f57d35c2146100ce575f80fd5b346100e957806003193601126100e9576020604051600a8152f35b80fd5b50346100e95760203660031901126100e9576004356001600160a01b038116908190036101765761011b610b9c565b80156101625781546001600160a01b03198116821783556001600160a01b03167f8be0079c531659141344cd1fd0a4f28419497f9722a3daafe3b4186f6b6457e08380a380f35b631e4fbdf760e01b82526004829052602482fd5b5080fd5b50346100e957806003193601126100e95760206040516301e133808152f35b50346100e95760203660031901126100e9576004356001600160a01b03811680820361023d5782526001602052604082206101d2610a37565b80600a0293600a8504820361022957506107d060a094049160328311610220575b6002610200825495610bc2565b910154906040519485526020850152604084015260608301526080820152f35b603292506101f3565b634e487b7160e01b81526011600452602490fd5b8280fd5b50346100e95760203660031901126100e95760043561025e6109a1565b6102698115156108b7565b610272336109d9565b338252600160205260408220610289828254610981565b905561029781600254610981565b6002556040516323b872dd60e01b815233600482015230602482015260448101829052602081606481867f00000000000000000000000000000000000000000000000000000000000000006001600160a01b03165af19081156103b5578391610386575b5015610341576040519081527f9e71bc8eea02a63969f509818f2dafb9254532904319f9dbda79b67bd34a5f3d60203392a260015f516020610c525f395f51905f525580f35b60405162461bcd60e51b815260206004820152601f60248201527f5374616b696e673a2046616c6861206e61207472616e73666572656e636961006044820152606490fd5b6103a8915060203d6020116103ae575b6103a08183610933565b810190610969565b5f6102fb565b503d610396565b6040513d85823e3d90fd5b50346100e957806003193601126100e957546040516001600160a01b039091168152602090f35b50346100e957806003193601126100e9576020600254604051908152f35b50346100e957806003193601126100e95761041e610b9c565b80546001600160a01b03198116825581906001600160a01b03167f8be0079c531659141344cd1fd0a4f28419497f9722a3daafe3b4186f6b6457e08280a380f35b50346100e957806003193601126100e957602061047a610a37565b604051908152f35b50346100e957806003193601126100e9576040517f00000000000000000000000000000000000000000000000000000000000000006001600160a01b03168152602090f35b50346100e957806003193601126100e957602060405160328152f35b50346105f2575f3660031901126105f2576104fc6109a1565b610505336109d9565b335f526001602052600260405f200180549081156105f6575f9055610528610a37565b7f00000000000000000000000000000000000000000000000000000000000000006001600160a01b0316803b156105f2576040516340c10f1960e01b815233600482015260248101849052905f908290604490829084905af180156105e7576105d2575b5060405191825260208201527fdacbdde355ba930696a362ea6738feb9f8bd52dfb3d81947558fd3217e23e32560403392a260015f516020610c525f395f51905f525580f35b6105df9193505f90610933565b5f915f61058c565b6040513d5f823e3d90fd5b5f80fd5b60405162461bcd60e51b815260206004820152602360248201527f5374616b696e673a2053656d207265636f6d70656e736173207061726120736160448201526231b0b960e91b6064820152608490fd5b346105f2575f3660031901126105f25760206040516107d08152f35b346105f2575f3660031901126105f2576040517f00000000000000000000000000000000000000000000000000000000000000006001600160a01b03168152602090f35b346105f25760203660031901126105f2576004356106c36109a1565b335f52600160205260405f2081815410610815576106e28215156108b7565b6106eb336109d9565b6106f6828254610912565b905561070481600254610912565b60025560405163a9059cbb60e01b8152336004820152602481018290526020816044815f6001600160a01b037f0000000000000000000000000000000000000000000000000000000000000000165af19081156105e7575f916107f6575b50156107a7576040519081527f0f5bb82176feb1b5e747e28471aa92156a04d9f3ab9f45f28e2d704232b93f7560203392a260015f516020610c525f395f51905f5255005b60405162461bcd60e51b815260206004820152602160248201527f5374616b696e673a2046616c686120616f206465766f6c76657220746f6b656e6044820152607360f81b6064820152608490fd5b61080f915060203d6020116103ae576103a08183610933565b82610762565b60405162461bcd60e51b8152602060048201526024808201527f5374616b696e673a2053616c646f20696e737566696369656e746520656d207360448201526374616b6560e01b6064820152608490fd5b346105f25760203660031901126105f2576004356001600160a01b03811691908290036105f2576060915f52600160205260405f208054906002600182015491015491835260208301526040820152f35b156108be57565b60405162461bcd60e51b815260206004820152602660248201527f5374616b696e673a2056616c6f72206465766520736572206d61696f7220717560448201526565207a65726f60d01b6064820152608490fd5b9190820391821161091f57565b634e487b7160e01b5f52601160045260245ffd5b90601f8019910116810190811067ffffffffffffffff82111761095557604052565b634e487b7160e01b5f52604160045260245ffd5b908160209103126105f2575180151581036105f25790565b9190820180921161091f57565b8181029291811591840414171561091f57565b60025f516020610c525f395f51905f5254146109ca5760025f516020610c525f395f51905f5255565b633ee5aeb560e01b5f5260045ffd5b60018060a01b0381165f52600160205260405f2090815415610a17576109fe90610bc2565b610a0d60028301918254610981565b9055600142910155565b50600142910155565b519069ffffffffffffffffffff821682036105f257565b604051633fabe5a360e21b815260a0816004817f00000000000000000000000000000000000000000000000000000000000000006001600160a01b03165afa805f925f92610b46575b50610a8d5750506107d090565b5f821315610af657610aa2610e109142610912565b11610ab1576305f5e100900490565b60405162461bcd60e51b815260206004820152601e60248201527f5374616b696e673a204f726163756c6f20646573617475616c697a61646f00006044820152606490fd5b60405162461bcd60e51b815260206004820152602260248201527f5374616b696e673a20507265636f20696e76616c69646f20646f206f726163756044820152616c6f60f01b6064820152608490fd5b9250905060a0823d60a011610b94575b81610b6360a09383610933565b810103126105f257610b7482610a20565b506020820151610b8b608060608501519401610a20565b5091905f610a80565b3d9150610b56565b5f546001600160a01b03163303610baf57565b63118cdaa760e01b5f523360045260245ffd5b6001600160a01b03165f90815260016020526040902080549081158015610c45575b610c3f576001610bf691015442610912565b90610bff610a37565b9182600a0292600a84040361091f57610c2d610c32926107d063bbf81e0095049060328211610c365761098e565b61098e565b0490565b6032915061098e565b50505f90565b50600181015415610be456fe9b779b17422d0df92223018b32b4d1fa46e071723d6817e2486d003becc55f00a26469706673582212208660c392c1504d6eb6bb72950000dd98160aeef386cd26994490971c6c1c5bfa64736f6c634300081c0033",
  "linkReferences": {},
  "deployedLinkReferences": {},
  "immutableReferences": {
    "1276": [
      {
        "length": 32,
        "start": 707
      },
      {
        "length": 32,
        "start": 1322
      },
      {
        "length": 32,
        "start": 1656
      },
      {
        "length": 32,
        "start": 1842
      }
    ],
    "1279": [
      {
        "length": 32,
        "start": 1176
      },
      {
        "length": 32,
        "start": 2636
      }
    ]
  },
  "inputSourceName": "project/contracts/EscrowStaking.sol",
  "buildInfoId": "solc-0_8_28-3194c9d99509d18e83c230c3acae2234e935f1cb"
}