{
  "_format": "hh3-artifact-1",
  "contractName": "EscrowToken",
  "sourceName": "contracts/EscrowToken.sol",
  "abi": [
    {
      "inputs": [
        {
          "internalType": "address",
          "name": "initialOwner",
          "type": "address"
        }
      ],
      "stateMutability": "nonpayable",
      "type": "constructor"
    },
    {
      "inputs": [
        {
          "internalType": "address",
          "name": "spender",
          "type": "address"
        },
        {
          "internalType": "uint256",
          "name": "allowance",
          "type": "uint256"
        },
        {
          "internalType": "uint256",
          "name": "needed",
          "type": "uint256"
        }
      ],
      "name": "ERC20InsufficientAllowance",
      "type": "error"
    },
    {
      "inputs": [
        {
          "internalType": "address",
          "name": "sender",
          "type": "address"
        },
        {
          "internalType": "uint256",
          "name": "balance",
          "type": "uint256"
        },
        {
          "internalType": "uint256",
          "name": "needed",
          "type": "uint256"
        }
      ],
      "name": "ERC20InsufficientBalance",
      "type": "error"
    },
    {
      "inputs": [
        {
          "internalType": "address",
          "name": "approver",
          "type": "address"
        }
      ],
      "name": "ERC20InvalidApprover",
      "type": "error"
    },
    {
      "inputs": [
        {
          "internalType": "address",
          "name": "receiver",
          "type": "address"
        }
      ],
      "name": "ERC20InvalidReceiver",
      "type": "error"
    },
    {
      "inputs": [
        {
          "internalType": "address",
          "name": "sender",
          "type": "address"
        }
      ],
      "name": "ERC20InvalidSender",
      "type": "error"
    },
    {
      "inputs": [
        {
          "internalType": "address",
          "name": "spender",
          "type": "address"
        }
      ],
      "name": "ERC20InvalidSpender",
      "type": "error"
    },
    {
      "inputs": [
        {
          "internalType": "address",
          "name": "owner",
          "type": "address"
        }
      ],
      "name": "OwnableInvalidOwner",
      "type": "error"
    },
    {
      "inputs": [
        {
          "internalType": "address",
          "name": "account",
          "type": "address"
        }
      ],
      "name": "OwnableUnauthorizedAccount",
      "type": "error"
    },
    {
      "anonymous": false,
      "inputs": [
        {
          "indexed": true,
          "internalType": "address",
          "name": "owner",
          "type": "address"
        },
        {
          "indexed": true,
          "internalType": "address",
          "name": "spender",
          "type": "address"
        },
        {
          "indexed": false,
          "internalType": "uint256",
          "name": "value",
          "type": "uint256"
        }
      ],
      "name": "Approval",
      "type": "event"
    },
    {
      "anonymous": false,
      "inputs": [
        {
          "indexed": true,
          "internalType": "address",
          "name": "to",
          "type": "address"
        },
        {
          "indexed": false,
          "internalType": "uint256",
          "name": "amount",
          "type": "uint256"
        }
      ],
      "name": "FaucetUsed",
      "type": "event"
    },
    {
      "anonymous": false,
      "inputs": [
        {
          "indexed": true,
          "internalType": "address",
          "name": "previousOwner",
          "type": "address"
        },
        {
          "indexed": true,
          "internalType": "address",
          "name": "newOwner",
          "type": "address"
        }
      ],
      "name": "OwnershipTransferred",
      "type": "event"
    },
    {
      "anonymous": false,
      "inputs": [
        {
          "indexed": true,
          "internalType": "address",
          "name": "to",
          "type": "address"
        },
        {
          "indexed": false,
          "internalType": "uint256",
          "name": "amount",
          "type": "uint256"
        }
      ],
      "name": "TokensMinted",
      "type": "event"
    },
    {
      "anonymous": false,
      "inputs": [
        {
          "indexed": true,
          "internalType": "address",
          "name": "from",
          "type": "address"
        },
        {
          "indexed": true,
          "internalType": "address",
          "name": "to",
          "type": "address"
        },
        {
          "indexed": false,
          "internalType": "uint256",
          "name": "value",
          "type": "uint256"
        }
      ],
      "name": "Transfer",
      "type": "event"
    },
    {
      "inputs": [],
      "name": "MAX_SUPPLY",
      "outputs": [
        {
          "internalType": "uint256",
          "name": "",
          "type": "uint256"
        }
      ],
      "stateMutability": "view",
      "type": "function"
    },
    {
      "inputs": [
        {
          "internalType": "address",
          "name": "owner",
          "type": "address"
        },
        {
          "internalType": "address",
          "name": "spender",
          "type": "address"
        }
      ],
      "name": "allowance",
      "outputs": [
        {
          "internalType": "uint256",
          "name": "",
          "type": "uint256"
        }
      ],
      "stateMutability": "view",
      "type": "function"
    },
    {
      "inputs": [
        {
          "internalType": "address",
          "name": "spender",
          "type": "address"
        },
        {
          "internalType": "uint256",
          "name": "value",
          "type": "uint256"
        }
      ],
      "name": "approve",
      "outputs": [
        {
          "internalType": "bool",
          "name": "",
          "type": "bool"
        }
      ],
      "stateMutability": "nonpayable",
      "type": "function"
    },
    {
      "inputs": [
        {
          "internalType": "address",
          "name": "account",
          "type": "address"
        }
      ],
      "name": "balanceOf",
      "outputs": [
        {
          "internalType": "uint256",
          "name": "",
          "type": "uint256"
        }
      ],
      "stateMutability": "view",
      "type": "function"
    },
    {
      "inputs": [
        {
          "internalType": "uint256",
          "name": "value",
          "type": "uint256"
        }
      ],
      "name": "burn",
      "outputs": [],
      "stateMutability": "nonpayable",
      "type": "function"
    },
    {
      "inputs": [
        {
          "internalType": "address",
          "name": "account",
          "type": "address"
        },
        {
          "internalType": "uint256",
          "name": "value",
          "type": "uint256"
        }
      ],
      "name": "burnFrom",
      "outputs": [],
      "stateMutability": "nonpayable",
      "type": "function"
    },
    {
      "inputs": [],
      "name": "decimals",
      "outputs": [
        {
          "internalType": "uint8",
          "name": "",
          "type": "uint8"
        }
      ],
      "stateMutability": "view",
      "type": "function"
    },
    {
      "inputs": [
        {
          "internalType": "address",
          "name": "",
          "type": "address"
        }
      ],
      "name": "faucetUsed",
      "outputs": [
        {
          "internalType": "bool",
          "name": "",
          "type": "bool"
        }
      ],
      "stateMutability": "view",
      "type": "function"
    },
    {
      "inputs": [
        {
          "internalType": "address",
          "name": "to",
          "type": "address"
        },
        {
          "internalType": "uint256",
          "name": "amount",
          "type": "uint256"
        }
      ],
      "name": "mint",
      "outputs": [],
      "stateMutability": "nonpayable",
      "type": "function"
    },
    {
      "inputs": [],
      "name": "name",
      "outputs": [
        {
          "internalType": "string",
          "name": "",
          "type": "string"
        }
      ],
      "stateMutability": "view",
      "type": "function"
    },
    {
      "inputs": [],
      "name": "owner",
      "outputs": [
        {
          "internalType": "address",
          "name": "",
          "type": "address"
        }
      ],
      "stateMutability": "view",
      "type": "function"
    },
    {
      "inputs": [],
      "name": "renounceOwnership",
      "outputs": [],
      "stateMutability": "nonpayable",
      "type": "function"
    },
    {
      "inputs": [],
      "name": "requestTestTokens",
      "outputs": [],
      "stateMutability": "nonpayable",
      "type": "function"
    },
    {
      "inputs": [],
      "name": "symbol",
      "outputs": [
        {
          "internalType": "string",
          "name": "",
          "type": "string"
        }
      ],
      "stateMutability": "view",
      "type": "function"
    },
    {
      "inputs": [],
      "name": "totalMinted",
      "outputs": [
        {
          "internalType": "uint256",
          "name": "",
          "type": "uint256"
        }
      ],
      "stateMutability": "view",
      "type": "function"
    },
    {
      "inputs": [],
      "name": "totalSupply",
      "outputs": [
        {
          "internalType": "uint256",
          "name": "",
          "type": "uint256"
        }
      ],
      "stateMutability": "view",
      "type": "function"
    },
    {
      "inputs": [
        {
          "internalType": "address",
          "name": "to",
          "type": "address"
        },
        {
          "internalType": "uint256",
          "name": "value",
          "type": "uint256"
        }
      ],
      "name": "transfer",
      "outputs": [
        {
          "internalType": "bool",
          "name": "",
          "type": "bool"
        }
      ],
      "stateMutability": "nonpayable",
      "type": "function"
    },
    {
      "inputs": [
        {
          "internalType": "address",
          "name": "from",
          "type": "address"
        },
        {
          "internalType": "address",
          "name": "to",
          "type": "address"
        },
        {
          "internalType": "uint256",
          "name": "value",
          "type": "uint256"
        }
      ],
      "name": "transferFrom",
      "outputs": [
        {
          "internalType": "bool",
          "name": "",
          "type": "bool"
        }
      ],
      "stateMutability": "nonpayable",
      "type": "function"
    },
    {
      "inputs": [
        {
          "internalType": "address",
          "name": "newOwner",
          "type": "address"
        }
      ],
      "name": "transferOwnership",
      "outputs": [],
      "stateMutability": "nonpayable",
      "type": "function"
    }
  ],
  "bytecode": "0x60806040523461041257610ff36020813803918261001c81610416565b93849283398101031261041257516001600160a01b03811690819003610412576100466040610416565b90600b82526a22b9b1b937bbaa37b5b2b760a91b60208301526100696040610416565b600381526245534360e81b602082015282519091906001600160401b03811161032357600354600181811c91168015610408575b602082101461030557601f81116103a5575b506020601f821160011461034257819293945f92610337575b50508160011b915f199060031b1c1916176003555b81516001600160401b03811161032357600454600181811c91168015610319575b602082101461030557601f81116102a2575b50602092601f821160011461024157928192935f92610236575b50508160011b915f199060031b1c1916176004555b801561022357600580546001600160a01b03198116831790915581906001600160a01b03167f8be0079c531659141344cd1fd0a4f28419497f9722a3daafe3b4186f6b6457e05f80a369d3c21bcecceda100000060065560025469d3c21bcecceda1000000810180911161020f57600255805f525f60205260405f2069d3c21bcecceda100000081540190555f7fddf252ad1be2c89b69c2b068fc378daa952ba7f163c4a11628f55a4df523b3ef602060405169d3c21bcecceda10000008152a3604051610bb7908161043c8239f35b634e487b7160e01b5f52601160045260245ffd5b631e4fbdf760e01b5f525f60045260245ffd5b015190505f8061012a565b601f1982169360045f52805f20915f5b86811061028a5750836001959610610272575b505050811b0160045561013f565b01515f1960f88460031b161c191690555f8080610264565b91926020600181928685015181550194019201610251565b60045f527f8a35acfbc15ff81a39ae7d344fd709f28e8600b4aa8c65c6b64bfe7fe36bd19b601f830160051c810191602084106102fb575b601f0160051c01905b8181106102f05750610110565b5f81556001016102e3565b90915081906102da565b634e487b7160e01b5f52602260045260245ffd5b90607f16906100fe565b634e487b7160e01b5f52604160045260245ffd5b015190505f806100c8565b601f1982169060035f52805f20915f5b81811061038d57509583600195969710610375575b505050811b016003556100dd565b01515f1960f88460031b161c191690555f8080610367565b9192602060018192868b015181550194019201610352565b60035f527fc2575a0e9e593c00f959f8c92f12db2869c3395a3b0502d05e2516446f71f85b601f830160051c810191602084106103fe575b601f0160051c01905b8181106103f357506100af565b5f81556001016103e6565b90915081906103dd565b90607f169061009d565b5f80fd5b6040519190601f01601f191682016001600160401b038111838210176103235760405256fe6080806040526004361015610012575f80fd5b5f3560e01c90816306fdde031461079e57508063095ea7b3146106f657806318160ddd146106d957806323b872dd146106a157806325681a8114610664578063313ce5671461064957806332cb6b0c1461062457806340c10f191461058957806342966c681461056c57806370a0823114610535578063715018a6146104da57806379cc6790146104a85780638da5cb5b14610480578063926bce851461033057806395d89b4114610215578063a2309ff8146101f8578063a9059cbb146101c7578063dd62ed3e146101775763f2fde38b146100ed575f80fd5b3461017357602036600319011261017357610106610897565b61010e610a69565b6001600160a01b0316801561016057600580546001600160a01b0319811683179091556001600160a01b03167f8be0079c531659141344cd1fd0a4f28419497f9722a3daafe3b4186f6b6457e05f80a3005b631e4fbdf760e01b5f525f60045260245ffd5b5f80fd5b3461017357604036600319011261017357610190610897565b6101986108ad565b6001600160a01b039182165f908152600160209081526040808320949093168252928352819020549051908152f35b34610173576040366003190112610173576101ed6101e3610897565b60243590336109bf565b602060405160018152f35b34610173575f366003190112610173576020600654604051908152f35b34610173575f366003190112610173576040515f6004548060011c90600181168015610326575b602083108114610312578285529081156102f657506001146102a1575b50819003601f01601f191681019067ffffffffffffffff82118183101761028d576102898291826040528261086d565b0390f35b634e487b7160e01b5f52604160045260245ffd5b905060045f527f8a35acfbc15ff81a39ae7d344fd709f28e8600b4aa8c65c6b64bfe7fe36bd19b5f905b8282106102e057506020915082010182610259565b60018160209254838588010152019101906102cb565b90506020925060ff191682840152151560051b82010182610259565b634e487b7160e01b5f52602260045260245ffd5b91607f169161023c565b34610173575f36600319011261017357335f52600760205260ff60405f20541661042857600654683635c9adc5dea000008101809111610414576a52b7d2dcc80cd2e40000006103819111156108d0565b335f52600760205260405f20600160ff19825416179055600654683635c9adc5dea000008101809111610414576006553315610401576103ca683635c9adc5dea0000033610b14565b604051683635c9adc5dea0000081527fc471df7d13ab46c73ec6eb2da0f35f84077f20d50243ba09a714b82cffc54de960203392a2005b63ec442f0560e01b5f525f60045260245ffd5b634e487b7160e01b5f52601160045260245ffd5b60405162461bcd60e51b815260206004820152602a60248201527f4553433a20466175636574206a61207574696c697a61646f20706f72206573746044820152696520656e64657265636f60b01b6064820152608490fd5b34610173575f366003190112610173576005546040516001600160a01b039091168152602090f35b34610173576040366003190112610173576104d86104c4610897565b602435906104d382338361091c565b610a90565b005b34610173575f366003190112610173576104f2610a69565b600580546001600160a01b031981169091555f906001600160a01b03167f8be0079c531659141344cd1fd0a4f28419497f9722a3daafe3b4186f6b6457e08280a3005b34610173576020366003190112610173576001600160a01b03610556610897565b165f525f602052602060405f2054604051908152f35b34610173576020366003190112610173576104d860043533610a90565b34610173576040366003190112610173576105a2610897565b6024356105ad610a69565b6105d9816006546105d46a52b7d2dcc80cd2e40000006105cd84846108c3565b11156108d0565b6108c3565b6006556001600160a01b038216918215610401578161061b7f3f2c9d57c068687834f0de942a9babb9e5acab57d516d3480a3c16ee165a427393602093610b14565b604051908152a2005b34610173575f3660031901126101735760206040516a52b7d2dcc80cd2e40000008152f35b34610173575f36600319011261017357602060405160128152f35b34610173576020366003190112610173576001600160a01b03610685610897565b165f526007602052602060ff60405f2054166040519015158152f35b34610173576060366003190112610173576101ed6106bd610897565b6106c56108ad565b604435916106d483338361091c565b6109bf565b34610173575f366003190112610173576020600254604051908152f35b346101735760403660031901126101735761070f610897565b60243590331561078b576001600160a01b031690811561077857335f52600160205260405f20825f526020528060405f20556040519081527f8c5be1e5ebec7d5bd14f71427d1e84f3dd0314c0f7b2291e5b200ac8c7c3b92560203392a3602060405160018152f35b634a1406b160e11b5f525f60045260245ffd5b63e602df0560e01b5f525f60045260245ffd5b34610173575f366003190112610173575f6003548060011c90600181168015610863575b602083108114610312578285529081156102f6575060011461080e5750819003601f01601f191681019067ffffffffffffffff82118183101761028d576102898291826040528261086d565b905060035f527fc2575a0e9e593c00f959f8c92f12db2869c3395a3b0502d05e2516446f71f85b5f905b82821061084d57506020915082010182610259565b6001816020925483858801015201910190610838565b91607f16916107c2565b602060409281835280519182918282860152018484015e5f828201840152601f01601f1916010190565b600435906001600160a01b038216820361017357565b602435906001600160a01b038216820361017357565b9190820180921161041457565b156108d757565b60405162461bcd60e51b815260206004820152601b60248201527f4553433a20537570706c79206d6178696d6f206174696e6769646f00000000006044820152606490fd5b6001600160a01b039081165f818152600160209081526040808320948616835293905291909120549291905f198410610956575b50505050565b82841061099c57801561078b576001600160a01b03821615610778575f52600160205260405f209060018060a01b03165f5260205260405f20910390555f808080610950565b508290637dc7a0d960e11b5f5260018060a01b031660045260245260445260645ffd5b6001600160a01b0316908115610a56576001600160a01b031691821561040157815f525f60205260405f2054818110610a3d57817fddf252ad1be2c89b69c2b068fc378daa952ba7f163c4a11628f55a4df523b3ef92602092855f525f84520360405f2055845f525f825260405f20818154019055604051908152a3565b8263391434e360e21b5f5260045260245260445260645ffd5b634b637e8f60e11b5f525f60045260245ffd5b6005546001600160a01b03163303610a7d57565b63118cdaa760e01b5f523360045260245ffd5b9091906001600160a01b03168015610a5657805f525f60205260405f2054838110610afa576020845f94957fddf252ad1be2c89b69c2b068fc378daa952ba7f163c4a11628f55a4df523b3ef938587528684520360408620558060025403600255604051908152a3565b915063391434e360e21b5f5260045260245260445260645ffd5b7fddf252ad1be2c89b69c2b068fc378daa952ba7f163c4a11628f55a4df523b3ef60205f92610b45856002546108c3565b6002556001600160a01b03169384158414610b6c5780600254036002555b604051908152a3565b84845283825260408420818154019055610b6356fea2646970667358221220e77773d52c3750c3af1c59ceb8feeeef2b95c8537229dadcc4edb26cda8d605d64736f6c634300081c0033",
  "linkReferences": {},
  "deployedLinkReferences": {},
  "immutableReferences": {},
  "inputSourceName": "project/contracts/EscrowToken.sol",
  "buildInfoId": "solc-0_8_28-c256189a098f1d6d6dd33d64b7bf3d33416e9c44"
}