{
  "_format": "hh3-artifact-1",
  "contractName": "EscrowGovernance",
  "sourceName": "contracts/EscrowGovernance.sol",
  "abi": [
    {
      "inputs": [
        {
          "internalType": "address",
          "name": "_governanceToken",
          "type": "address"
        },
        {
          "internalType": "address",
          "name": "initialOwner",
          "type": "address"
        }
      ],
      "stateMutability": "nonpayable",
      "type": "constructor"
    },
    {
      "inputs": [
        {
          "internalType": "address",
          "name": "owner",
          "type": "address"
        }
      ],
      "name": "OwnableInvalidOwner",
      "type": "error"
    },
    {
      "inputs": [
        {
          "internalType": "address",
          "name": "account",
          "type": "address"
        }
      ],
      "name": "OwnableUnauthorizedAccount",
      "type": "error"
    },
    {
      "anonymous": false,
      "inputs": [
        {
          "indexed": true,
          "internalType": "address",
          "name": "previousOwner",
          "type": "address"
        },
        {
          "indexed": true,
          "internalType": "address",
          "name": "newOwner",
          "type": "address"
        }
      ],
      "name": "OwnershipTransferred",
      "type": "event"
    },
    {
      "anonymous": false,
      "inputs": [
        {
          "indexed": true,
          "internalType": "uint256",
          "name": "proposalId",
          "type": "uint256"
        },
        {
          "indexed": true,
          "internalType": "address",
          "name": "proposer",
          "type": "address"
        },
        {
          "indexed": false,
          "internalType": "string",
          "name": "title",
          "type": "string"
        },
        {
          "indexed": false,
          "internalType": "uint256",
          "name": "votingDeadline",
          "type": "uint256"
        }
      ],
      "name": "ProposalCreated",
      "type": "event"
    },
    {
      "anonymous": false,
      "inputs": [
        {
          "indexed": true,
          "internalType": "uint256",
          "name": "proposalId",
          "type": "uint256"
        }
      ],
      "name": "ProposalExecuted",
      "type": "event"
    },
    {
      "anonymous": false,
      "inputs": [
        {
          "indexed": true,
          "internalType": "uint256",
          "name": "proposalId",
          "type": "uint256"
        },
        {
          "indexed": false,
          "internalType": "enum EscrowGovernance.ProposalStatus",
          "name": "status",
          "type": "uint8"
        }
      ],
      "name": "ProposalFinalized",
      "type": "event"
    },
    {
      "anonymous": false,
      "inputs": [
        {
          "indexed": true,
          "internalType": "uint256",
          "name": "proposalId",
          "type": "uint256"
        },
        {
          "indexed": true,
          "internalType": "address",
          "name": "voter",
          "type": "address"
        },
        {
          "indexed": false,
          "internalType": "bool",
          "name": "support",
          "type": "bool"
        },
        {
          "indexed": false,
          "internalType": "uint256",
          "name": "weight",
          "type": "uint256"
        }
      ],
      "name": "VoteCast",
      "type": "event"
    },
    {
      "inputs": [],
      "name": "MIN_TOKENS_TO_PROPOSE",
      "outputs": [
        {
          "internalType": "uint256",
          "name": "",
          "type": "uint256"
        }
      ],
      "stateMutability": "view",
      "type": "function"
    },
    {
      "inputs": [],
      "name": "QUORUM",
      "outputs": [
        {
          "internalType": "uint256",
          "name": "",
          "type": "uint256"
        }
      ],
      "stateMutability": "view",
      "type": "function"
    },
    {
      "inputs": [],
      "name": "VOTING_PERIOD",
      "outputs": [
        {
          "internalType": "uint256",
          "name": "",
          "type": "uint256"
        }
      ],
      "stateMutability": "view",
      "type": "function"
    },
    {
      "inputs": [
        {
          "internalType": "uint256",
          "name": "proposalId",
          "type": "uint256"
        }
      ],
      "name": "executeProposal",
      "outputs": [],
      "stateMutability": "nonpayable",
      "type": "function"
    },
    {
      "inputs": [
        {
          "internalType": "uint256",
          "name": "proposalId",
          "type": "uint256"
        }
      ],
      "name": "finalizeProposal",
      "outputs": [],
      "stateMutability": "nonpayable",
      "type": "function"
    },
    {
      "inputs": [
        {
          "internalType": "uint256",
          "name": "proposalId",
          "type": "uint256"
        }
      ],
      "name": "getProposal",
      "outputs": [
        {
          "components": [
            {
              "internalType": "uint256",
              "name": "id",
              "type": "uint256"
            },
            {
              "internalType": "address",
              "name": "proposer",
              "type": "address"
            },
            {
              "internalType": "string",
              "name": "title",
              "type": "string"
            },
            {
              "internalType": "string",
              "name": "description",
              "type": "string"
            },
            {
              "internalType": "uint256",
              "name": "createdAt",
              "type": "uint256"
            },
            {
              "internalType": "uint256",
              "name": "votingDeadline",
              "type": "uint256"
            },
            {
              "internalType": "uint256",
              "name": "votesFor",
              "type": "uint256"
            },
            {
              "internalType": "uint256",
              "name": "votesAgainst",
              "type": "uint256"
            },
            {
              "internalType": "enum EscrowGovernance.ProposalStatus",
              "name": "status",
              "type": "uint8"
            },
            {
              "internalType": "address",
              "name": "targetContract",
              "type": "address"
            },
            {
              "internalType": "bytes",
              "name": "callData",
              "type": "bytes"
            },
            {
              "internalType": "bool",
              "name": "executed",
              "type": "bool"
            }
          ],
          "internalType": "struct EscrowGovernance.Proposal",
          "name": "",
          "type": "tuple"
        }
      ],
      "stateMutability": "view",
      "type": "function"
    },
    {
      "inputs": [
        {
          "internalType": "address",
          "name": "voter",
          "type": "address"
        }
      ],
      "name": "getVotingPower",
      "outputs": [
        {
          "internalType": "uint256",
          "name": "",
          "type": "uint256"
        }
      ],
      "stateMutability": "view",
      "type": "function"
    },
    {
      "inputs": [],
      "name": "governanceToken",
      "outputs": [
        {
          "internalType": "contract EscrowToken",
          "name": "",
          "type": "address"
        }
      ],
      "stateMutability": "view",
      "type": "function"
    },
    {
      "inputs": [
        {
          "internalType": "uint256",
          "name": "",
          "type": "uint256"
        },
        {
          "internalType": "address",
          "name": "",
          "type": "address"
        }
      ],
      "name": "hasVoted",
      "outputs": [
        {
          "internalType": "bool",
          "name": "",
          "type": "bool"
        }
      ],
      "stateMutability": "view",
      "type": "function"
    },
    {
      "inputs": [
        {
          "internalType": "uint256",
          "name": "proposalId",
          "type": "uint256"
        }
      ],
      "name": "isActive",
      "outputs": [
        {
          "internalType": "bool",
          "name": "",
          "type": "bool"
        }
      ],
      "stateMutability": "view",
      "type": "function"
    },
    {
      "inputs": [],
      "name": "owner",
      "outputs": [
        {
          "internalType": "address",
          "name": "",
          "type": "address"
        }
      ],
      "stateMutability": "view",
      "type": "function"
    },
    {
      "inputs": [],
      "name": "proposalCount",
      "outputs": [
        {
          "internalType": "uint256",
          "name": "",
          "type": "uint256"
        }
      ],
      "stateMutability": "view",
      "type": "function"
    },
    {
      "inputs": [
        {
          "internalType": "uint256",
          "name": "",
          "type": "uint256"
        }
      ],
      "name": "proposals",
      "outputs": [
        {
          "internalType": "uint256",
          "name": "id",
          "type": "uint256"
        },
        {
          "internalType": "address",
          "name": "proposer",
          "type": "address"
        },
        {
          "internalType": "string",
          "name": "title",
          "type": "string"
        },
        {
          "internalType": "string",
          "name": "description",
          "type": "string"
        },
        {
          "internalType": "uint256",
          "name": "createdAt",
          "type": "uint256"
        },
        {
          "internalType": "uint256",
          "name": "votingDeadline",
          "type": "uint256"
        },
        {
          "internalType": "uint256",
          "name": "votesFor",
          "type": "uint256"
        },
        {
          "internalType": "uint256",
          "name": "votesAgainst",
          "type": "uint256"
        },
        {
          "internalType": "enum EscrowGovernance.ProposalStatus",
          "name": "status",
          "type": "uint8"
        },
        {
          "internalType": "address",
          "name": "targetContract",
          "type": "address"
        },
        {
          "internalType": "bytes",
          "name": "callData",
          "type": "bytes"
        },
        {
          "internalType": "bool",
          "name": "executed",
          "type": "bool"
        }
      ],
      "stateMutability": "view",
      "type": "function"
    },
    {
      "inputs": [
        {
          "internalType": "string",
          "name": "title",
          "type": "string"
        },
        {
          "internalType": "string",
          "name": "description",
          "type": "string"
        },
        {
          "internalType": "address",
          "name": "targetContract",
          "type": "address"
        },
        {
          "internalType": "bytes",
          "name": "callData",
          "type": "bytes"
        }
      ],
      "name": "propose",
      "outputs": [
        {
          "internalType": "uint256",
          "name": "",
          "type": "uint256"
        }
      ],
      "stateMutability": "nonpayable",
      "type": "function"
    },
    {
      "inputs": [],
      "name": "renounceOwnership",
      "outputs": [],
      "stateMutability": "nonpayable",
      "type": "function"
    },
    {
      "inputs": [
        {
          "internalType": "address",
          "name": "newOwner",
          "type": "address"
        }
      ],
      "name": "transferOwnership",
      "outputs": [],
      "stateMutability": "nonpayable",
      "type": "function"
    },
    {
      "inputs": [
        {
          "internalType": "uint256",
          "name": "proposalId",
          "type": "uint256"
        },
        {
          "internalType": "bool",
          "name": "support",
          "type": "bool"
        }
      ],
      "name": "vote",
      "outputs": [],
      "stateMutability": "nonpayable",
      "type": "function"
    },
    {
      "inputs": [
        {
          "internalType": "uint256",
          "name": "",
          "type": "uint256"
        },
        {
          "internalType": "address",
          "name": "",
          "type": "address"
        }
      ],
      "name": "votesOf",
      "outputs": [
        {
          "internalType": "uint256",
          "name": "",
          "type": "uint256"
        }
      ],
      "stateMutability": "view",
      "type": "function"
    }
  ],
  "bytecode": "0x60a0346100f357601f61191538819003918201601f19168301916001600160401b038311848410176100f75780849260409485528339810103126100f3576100468161010b565b906001600160a01b039061005c9060200161010b565b169081156100e0575f80546001600160a01b031981168417825560405193916001600160a01b03909116907f8be0079c531659141344cd1fd0a4f28419497f9722a3daafe3b4186f6b6457e09080a36001600160a01b03166080526117f59081610120823960805181818160f701528181610262015281816108f90152610dd20152f35b631e4fbdf760e01b5f525f60045260245ffd5b5f80fd5b634e487b7160e01b5f52604160045260245ffd5b51906001600160a01b03821682036100f35756fe6080806040526004361015610012575f80fd5b5f3560e01c908163013cf08b146113f1575080630d61b5191461116a5780631f405b4d146111265780632e80d9b61461110357806343859632146110ba5780635652077c14610f53578063715018a614610efc57806382afd23b14610ea65780638da5cb5b14610e7f578063b1610d7e14610e62578063b6de6d1f14610e3f578063bb4d443614610d8f578063c7f758a814610b4b578063c9d27afe1461085f578063da35c66414610842578063de7b1638146101af578063f2fde38b1461012a5763f96dae0a146100e2575f80fd5b34610126575f366003190112610126576040517f00000000000000000000000000000000000000000000000000000000000000006001600160a01b03168152602090f35b5f80fd5b346101265760203660031901126101265761014361166b565b61014b611799565b6001600160a01b0316801561019c575f80546001600160a01b03198116831782556001600160a01b0316907f8be0079c531659141344cd1fd0a4f28419497f9722a3daafe3b4186f6b6457e09080a3005b631e4fbdf760e01b5f525f60045260245ffd5b346101265760803660031901126101265760043567ffffffffffffffff8111610126576101e09036906004016116d3565b60243567ffffffffffffffff8111610126576102009036906004016116d3565b6044356001600160a01b03811692908390036101265760643567ffffffffffffffff811161012657366023820112156101265761024790369060248160040135910161169d565b6040516370a0823160e01b81523360048201526020816024817f00000000000000000000000000000000000000000000000000000000000000006001600160a01b03165afa8015610837575f906107fc575b68056bc75e2d631000009150106107915781511561073e578251156106e857600154925f1984146106d457600184016001556203f4804201928342116106d457604051916102e6836115e5565b85835260208301963388526040840191838352606085019081526080850142815260a0860188815260c08701915f835260e08801935f85526101008901965f88526101208a019687526101408a019a8b526101608a01995f8b528d5f52600260205260405f209e8f915182556001820190600160a01b600190039051166bffffffffffffffffffffffff60a01b825416179055600201905180519067ffffffffffffffff82116105db576103a48261039e855461152c565b8561174a565b602090601f8311600114610671576103d392915f9183610603575b50508160011b915f199060031b1c19161790565b90555b51805160038e019167ffffffffffffffff82116105db576103fb8261039e855461152c565b602090601f831160011461060e5761042992915f91836106035750508160011b915f199060031b1c19161790565b90555b5160048c01555160058b01555160068a015551600789015560088801915160048110156105ef57825491516001600160a81b031990921660ff919091161760089190911b610100600160a81b03161790559151805195600981019391929067ffffffffffffffff88116105db578787946104b260209a6104ac895461152c565b8961174a565b8990601f831160011461054d5782600a94937f98120a6aaa04295520ab4e01c6c1235dd316e822cc9ff31db7b3f197366d18bd989993610506935f926105425750508160011b915f199060031b1c19161790565b90555b019051151560ff8019835416911617905561052f60405191604083526040830190611624565b93868201528033940390a3604051908152f35b015190508d806103bf565b601f9792919719821690835f52885f20915f5b8181106105c15750917f98120a6aaa04295520ab4e01c6c1235dd316e822cc9ff31db7b3f197366d18bd98998492600a979695600195106105a9575b505050811b019055610509565b01515f1960f88460031b161c191690558c808061059c565b828b01518455998d01998c99506001909301928d01610560565b634e487b7160e01b5f52604160045260245ffd5b634e487b7160e01b5f52602160045260245ffd5b015190505f806103bf565b90601f19831691845f52815f20925f5b8181106106595750908460019594939210610641575b505050811b01905561042c565b01515f1960f88460031b161c191690558f8080610634565b9293602060018192878601518155019501930161061e565b90601f19831691845f52815f20925f5b8181106106bc57509084600195949392106106a4575b505050811b0190556103d6565b01515f1960f88460031b161c191690555f8080610697565b92936020600181928786015181550195019301610681565b634e487b7160e01b5f52601160045260245ffd5b60405162461bcd60e51b815260206004820152602860248201527f476f7665726e616e63653a2044657363726963616f206e616f20706f6465207360448201526765722076617a696160c01b6064820152608490fd5b60405162461bcd60e51b815260206004820152602560248201527f476f7665726e616e63653a20546974756c6f206e616f20706f6465207365722060448201526476617a696f60d81b6064820152608490fd5b60405162461bcd60e51b815260206004820152603860248201527f476f7665726e616e63653a2053616c646f20696e737566696369656e7465207060448201527f6172612070726f706f7220286d696e20313030204553432900000000000000006064820152608490fd5b506020813d60201161082f575b8161081660209383611602565b810103126101265768056bc75e2d631000009051610299565b3d9150610809565b6040513d5f823e3d90fd5b34610126575f366003190112610126576020600154604051908152f35b3461012657604036600319011261012657600435602435908115159182810361012657815f52600260205260405f2061089d600482015415156116f1565b60ff60088201541660048110156105ef57610afa5760058101544211610aa4575f83815260036020908152604080832033845290915290205460ff16610a53576040516370a0823160e01b8152336004820152916020836024817f00000000000000000000000000000000000000000000000000000000000000006001600160a01b03165afa928315610837575f93610a1f575b5082156109d0575f84815260036020908152604080832033808552908352818420805460ff19166001179055878452600483528184209084529091529020839055156109bb5760060161098582825461173d565b90555b60405192835260208301527fcbdf6214089cba887ecbf35a0b6a734589959c9763342c756bb2a80ca2bc9f6e60403393a3005b6007016109c982825461173d565b9055610988565b60405162461bcd60e51b815260206004820152602160248201527f476f7665726e616e63653a2053656d20746f6b656e73207061726120766f74616044820152603960f91b6064820152608490fd5b9092506020813d602011610a4b575b81610a3b60209383611602565b8101031261012657519185610931565b3d9150610a2e565b60405162461bcd60e51b815260206004820152602360248201527f476f7665726e616e63653a204a6120766f746f75206e657374612070726f706f60448201526273746160e81b6064820152608490fd5b60405162461bcd60e51b815260206004820152602860248201527f476f7665726e616e63653a20506572696f646f20646520766f746163616f20656044820152676e6365727261646f60c01b6064820152608490fd5b60405162461bcd60e51b815260206004820152602360248201527f476f7665726e616e63653a2050726f706f737461206e616f206573746120617460448201526269766160e81b6064820152608490fd5b34610126576020366003190112610126576004355f610160604051610b6f816115e5565b828152826020820152606060408201526060808201528260808201528260a08201528260c08201528260e0820152826101008201528261012082015260606101408201520152805f526002602052610bcf600460405f20015415156116f1565b5f52600260205260405f20604051610be6816115e5565b8154815260018201546001600160a01b0316602082019081526040519092610c1c82610c158160028501611564565b0383611602565b6040830191825260405190610c3882610c158160038501611564565b606084019182526004810154916080850192835260058201549060a08601918252600683015460c0870190815260078401549060e0880191825260088501549360ff8516936101008a019460048110156105ef57855260089590951c6001600160a01b03166101208a019081526040519690959087610cba8160098401611564565b03610cc59089611602565b6101408b01978852600a015460ff16986101608b019915158a526040519b8c9b60208d525160208d0152600160a01b6001900390511660408c01525160608b0161018090526101a08b01610d1891611624565b90518a8203601f190160808c0152610d309190611624565b965160a08a01525160c08901525160e088015251610100870152516101208601610d5991611648565b516001600160a01b031661014085015251838203601f1901610160850152610d819190611624565b905115156101808301520390f35b3461012657602036600319011261012657610da861166b565b6040516370a0823160e01b81526001600160a01b03918216600482015290602090829060249082907f0000000000000000000000000000000000000000000000000000000000000000165afa8015610837575f90610e0c575b602090604051908152f35b506020813d602011610e37575b81610e2660209383611602565b810103126101265760209051610e01565b3d9150610e19565b34610126575f36600319011261012657602060405168056bc75e2d631000008152f35b34610126575f3660031901126101265760206040516203f4808152f35b34610126575f366003190112610126575f546040516001600160a01b039091168152602090f35b34610126576020366003190112610126576004355f52600260205260405f2060ff6008820154169060048210156105ef57602091159081610eed575b506040519015158152f35b60059150015442111582610ee2565b34610126575f36600319011261012657610f14611799565b5f80546001600160a01b0319811682556001600160a01b03167f8be0079c531659141344cd1fd0a4f28419497f9722a3daafe3b4186f6b6457e08280a3005b3461012657602036600319011261012657600435805f52600260205260405f20610f82600482015415156116f1565b6008810160ff81541660048110156105ef5761106a5760058201544211156110255760ff6020918360067f34a42c4ce0a88d16ad098de6406057747139a2a3dd8dd8616ee7bbabcecb768e950154683635c9adc5dea000008110159182611017575b50501561100857600182198254161781555b54166110056040518092611648565ba2005b60028219825416178155610ff6565b600701541090508680610fe4565b60405162461bcd60e51b815260206004820152601f60248201527f476f7665726e616e63653a20566f746163616f2061696e6461206174697661006044820152606490fd5b60405162461bcd60e51b815260206004820152602260248201527f476f7665726e616e63653a2050726f706f737461206a612066696e616c697a61604482015261646160f01b6064820152608490fd5b34610126576040366003190112610126576110d3611655565b6004355f52600360205260405f209060018060a01b03165f52602052602060ff60405f2054166040519015158152f35b34610126575f366003190112610126576020604051683635c9adc5dea000008152f35b346101265760403660031901126101265761113f611655565b6004355f52600460205260405f209060018060a01b03165f52602052602060405f2054604051908152f35b3461012657602036600319011261012657600435611186611799565b805f52600260205260405f206008810180549060ff821660048110156105ef576001036113a257600a830180549260ff84166113535760081c6001600160a01b03161561130e57600160099360ff1916179055600360ff1982541617815560018060a01b03905460081c169101604051905f908054906112058261152c565b91600181169081156112f757506001146112c5575b505091815f809493819403925af13d156112c0573d61123881611681565b906112466040519283611602565b81525f60203d92013e5b1561127b577f712ae1383f79ac853f8d882153778e0260ef8f03b504e2866e0593e04d2b291f5f80a2005b60405162461bcd60e51b815260206004820152601b60248201527f476f7665726e616e63653a20457865637563616f2066616c686f7500000000006044820152606490fd5b611250565b9091505f5260205f205f905b8282106112e35750508101815f61121a565b6001816020925484870152019101906112d1565b60ff1916855250508015150282019050815f61121a565b60405162461bcd60e51b815260206004820152601d60248201527f476f7665726e616e63653a2053656d20636f6e747261746f20616c766f0000006044820152606490fd5b60405162461bcd60e51b815260206004820152602160248201527f476f7665726e616e63653a2050726f706f737461206a612065786563757461646044820152606160f81b6064820152608490fd5b60405162461bcd60e51b815260206004820152602160248201527f476f7665726e616e63653a2050726f706f737461206e616f206170726f7661646044820152606160f81b6064820152608490fd5b34610126576020366003190112610126576004355f52600260205260405f2090815490600160a01b60019003600184015416928180600283019061143491611564565b0361143f9083611602565b604051806114508160038501611564565b0361145b9082611602565b60048201549060058301546006840154600785015491600886015493604051968780600983019061148b91611564565b036114969089611602565b600a015460ff16976040519a8b9a8b5260208b015260408a0161018090526101808a016114c291611624565b89810360608b01526114d391611624565b94608089015260a088015260c087015260e0860152610100850160ff8216906114fb91611648565b60081c6001600160a01b031661012085015283810361014085015261151f91611624565b9015156101608301520390f35b90600182811c9216801561155a575b602083101461154657565b634e487b7160e01b5f52602260045260245ffd5b91607f169161153b565b5f92918154916115738361152c565b80835292600181169081156115c8575060011461158f57505050565b5f9081526020812093945091925b8383106115ae575060209250010190565b60018160209294939454838587010152019101919061159d565b915050602093945060ff929192191683830152151560051b010190565b610180810190811067ffffffffffffffff8211176105db57604052565b90601f8019910116810190811067ffffffffffffffff8211176105db57604052565b805180835260209291819084018484015e5f828201840152601f01601f1916010190565b9060048210156105ef5752565b602435906001600160a01b038216820361012657565b600435906001600160a01b038216820361012657565b67ffffffffffffffff81116105db57601f01601f191660200190565b9291926116a982611681565b916116b76040519384611602565b829481845281830111610126578281602093845f960137010152565b9080601f83011215610126578160206116ee9335910161169d565b90565b156116f857565b60405162461bcd60e51b815260206004820152601f60248201527f476f7665726e616e63653a2050726f706f737461206e616f20657869737465006044820152606490fd5b919082018092116106d457565b601f821161175757505050565b5f5260205f20906020601f840160051c8301931061178f575b601f0160051c01905b818110611784575050565b5f8155600101611779565b9091508190611770565b5f546001600160a01b031633036117ac57565b63118cdaa760e01b5f523360045260245ffdfea2646970667358221220aa86e5ff83738ebb4164f9080e7ebcc8513d95c9426dbb4f55a2344cc5bb273364736f6c634300081c0033",
  "linkReferences": {},
  "deployedLinkReferences": {},
  "immutableReferences": {
    "989": [
      {
        "length": 32,
        "start": 247
      },
      {
        "length": 32,
        "start": 610
      },
      {
        "length": 32,
        "start": 2297
      },
      {
        "length": 32,
        "start": 3538
      }
    ]
  },
  "inputSourceName": "project/contracts/EscrowGovernance.sol",
  "buildInfoId": "solc-0_8_28-3118400286dd323a2b40fbd9c226e63e6d964a07"
}