{
  "_format": "hh3-artifact-1",
  "contractName": "Escrow",
  "sourceName": "contracts/Escrow.sol",
  "abi": [
    {
      "anonymous": false,
      "inputs": [
        {
          "indexed": true,
          "internalType": "address",
          "name": "buyer",
          "type": "address"
        },
        {
          "indexed": true,
          "internalType": "address",
          "name": "seller",
          "type": "address"
        },
        {
          "indexed": false,
          "internalType": "uint256",
          "name": "amount",
          "type": "uint256"
        },
        {
          "indexed": false,
          "internalType": "uint256",
          "name": "timestamp",
          "type": "uint256"
        }
      ],
      "name": "InstantPaymentReleased",
      "type": "event"
    },
    {
      "anonymous": false,
      "inputs": [
        {
          "indexed": true,
          "internalType": "uint256",
          "name": "id",
          "type": "uint256"
        },
        {
          "indexed": true,
          "internalType": "address",
          "name": "buyer",
          "type": "address"
        },
        {
          "indexed": true,
          "internalType": "address",
          "name": "seller",
          "type": "address"
        },
        {
          "indexed": false,
          "internalType": "uint256",
          "name": "amount",
          "type": "uint256"
        },
        {
          "indexed": false,
          "internalType": "uint256",
          "name": "timestamp",
          "type": "uint256"
        }
      ],
      "name": "PaymentCreated",
      "type": "event"
    },
    {
      "anonymous": false,
      "inputs": [
        {
          "indexed": true,
          "internalType": "uint256",
          "name": "id",
          "type": "uint256"
        },
        {
          "indexed": true,
          "internalType": "address",
          "name": "seller",
          "type": "address"
        },
        {
          "indexed": false,
          "internalType": "uint256",
          "name": "amount",
          "type": "uint256"
        },
        {
          "indexed": false,
          "internalType": "uint256",
          "name": "timestamp",
          "type": "uint256"
        }
      ],
      "name": "PaymentReleased",
      "type": "event"
    },
    {
      "inputs": [
        {
          "internalType": "address",
          "name": "seller",
          "type": "address"
        },
        {
          "internalType": "bool",
          "name": "isEscrow",
          "type": "bool"
        }
      ],
      "name": "pay",
      "outputs": [],
      "stateMutability": "payable",
      "type": "function"
    },
    {
      "inputs": [],
      "name": "paymentCount",
      "outputs": [
        {
          "internalType": "uint256",
          "name": "",
          "type": "uint256"
        }
      ],
      "stateMutability": "view",
      "type": "function"
    },
    {
      "inputs": [
        {
          "internalType": "uint256",
          "name": "",
          "type": "uint256"
        }
      ],
      "name": "payments",
      "outputs": [
        {
          "internalType": "address",
          "name": "buyer",
          "type": "address"
        },
        {
          "internalType": "address",
          "name": "seller",
          "type": "address"
        },
        {
          "internalType": "uint256",
          "name": "amount",
          "type": "uint256"
        },
        {
          "internalType": "bool",
          "name": "released",
          "type": "bool"
        },
        {
          "internalType": "uint256",
          "name": "createdAt",
          "type": "uint256"
        }
      ],
      "stateMutability": "view",
      "type": "function"
    },
    {
      "inputs": [
        {
          "internalType": "uint256",
          "name": "id",
          "type": "uint256"
        }
      ],
      "name": "release",
      "outputs": [],
      "stateMutability": "nonpayable",
      "type": "function"
    }
  ],
  "bytecode": "0x6080604052348015600e575f5ffd5b506105808061001c5f395ff3fe60806040526004361061003e575f3560e01c80630937e68a1461004257806337bdc99b1461006957806387d817891461008a578063a9d0de5b1461011a575b5f5ffd5b34801561004d575f5ffd5b506100565f5481565b6040519081526020015b60405180910390f35b348015610074575f5ffd5b506100886100833660046104c9565b61012d565b005b348015610095575f5ffd5b506100e56100a43660046104c9565b600160208190525f9182526040909120805491810154600282015460038301546004909301546001600160a01b039485169490921692909160ff9091169085565b604080516001600160a01b0396871681529590941660208601529284019190915215156060830152608082015260a001610060565b6100886101283660046104e0565b6102cc565b5f81815260016020526040902080546001600160a01b031633146101985760405162461bcd60e51b815260206004820152601f60248201527f4170656e6173206f20636f6d707261646f7220706f6465206c6962657261720060448201526064015b60405180910390fd5b600381015460ff16156101df5760405162461bcd60e51b815260206004820152600f60248201526e4a6120666f69206c6962657261646f60881b604482015260640161018f565b5f8160020154116102295760405162461bcd60e51b8152602060048201526014602482015273506167616d656e746f206e616f2065786973746560601b604482015260640161018f565b60038101805460ff1916600190811790915581015460028201546040516001600160a01b039092169181156108fc0291905f818181858888f19350505050158015610276573d5f5f3e3d5ffd5b5060018101546002820154604080519182524260208301526001600160a01b039092169184917f8cdc8dc08e54a4e57f52077ecf1b4c508758513439cae2aa325dcc85b922fca891015b60405180910390a35050565b5f341161031b5760405162461bcd60e51b815260206004820152601d60248201527f56616c6f72206465766520736572206d61696f7220717565207a65726f000000604482015260640161018f565b6001600160a01b0382166103635760405162461bcd60e51b815260206004820152600f60248201526e53656c6c657220696e76616c69646f60881b604482015260640161018f565b8015610454576040805160a081018252338082526001600160a01b038581166020808501828152348688018181525f606089018181524260808b018181528354845260018089528d85209c518d54908c166001600160a01b0319918216178e559751908d01805491909b16971696909617909855915160028a0155905160038901805491151560ff1990921691909117905591516004909701969096555486519586529085019290925293919290917f33fb9d17e2e51070b7bd9a59de4a82d7338ab61abc4330a7bb2d479e14f72d9e910160405180910390a45f8054908061044b83610526565b91905055505050565b6040516001600160a01b038316903480156108fc02915f818181858888f19350505050158015610486573d5f5f3e3d5ffd5b50604080513481524260208201526001600160a01b0384169133917f56fdc46bdcdc911a447bfef188e858c01ce7f7ddedf67894c7ad48bfcb6df3c791016102c0565b5f602082840312156104d9575f5ffd5b5035919050565b5f5f604083850312156104f1575f5ffd5b82356001600160a01b0381168114610507575f5ffd5b91506020830135801515811461051b575f5ffd5b809150509250929050565b5f6001820161054357634e487b7160e01b5f52601160045260245ffd5b506001019056fea2646970667358221220289f7e486d322f5ecc51ff6253c79b0eb323be12498ced8079173a46b1e806f264736f6c634300081c0033",
  "linkReferences": {},
  "deployedLinkReferences": {},
  "immutableReferences": {},
  "inputSourceName": "project/contracts/Escrow.sol",
  "buildInfoId": "solc-0_8_28-bed557a85731abe615ca6d37ef06c025caa604f7"
}