{
  "_format": "hh3-artifact-1",
  "contractName": "EscrowNFT",
  "sourceName": "contracts/EscrowNFT.sol",
  "abi": [
    {
      "inputs": [
        {
          "internalType": "address",
          "name": "initialOwner",
          "type": "address"
        }
      ],
      "stateMutability": "nonpayable",
      "type": "constructor"
    },
    {
      "inputs": [
        {
          "internalType": "address",
          "name": "sender",
          "type": "address"
        },
        {
          "internalType": "uint256",
          "name": "tokenId",
          "type": "uint256"
        },
        {
          "internalType": "address",
          "name": "owner",
          "type": "address"
        }
      ],
      "name": "ERC721IncorrectOwner",
      "type": "error"
    },
    {
      "inputs": [
        {
          "internalType": "address",
          "name": "operator",
          "type": "address"
        },
        {
          "internalType": "uint256",
          "name": "tokenId",
          "type": "uint256"
        }
      ],
      "name": "ERC721InsufficientApproval",
      "type": "error"
    },
    {
      "inputs": [
        {
          "internalType": "address",
          "name": "approver",
          "type": "address"
        }
      ],
      "name": "ERC721InvalidApprover",
      "type": "error"
    },
    {
      "inputs": [
        {
          "internalType": "address",
          "name": "operator",
          "type": "address"
        }
      ],
      "name": "ERC721InvalidOperator",
      "type": "error"
    },
    {
      "inputs": [
        {
          "internalType": "address",
          "name": "owner",
          "type": "address"
        }
      ],
      "name": "ERC721InvalidOwner",
      "type": "error"
    },
    {
      "inputs": [
        {
          "internalType": "address",
          "name": "receiver",
          "type": "address"
        }
      ],
      "name": "ERC721InvalidReceiver",
      "type": "error"
    },
    {
      "inputs": [
        {
          "internalType": "address",
          "name": "sender",
          "type": "address"
        }
      ],
      "name": "ERC721InvalidSender",
      "type": "error"
    },
    {
      "inputs": [
        {
          "internalType": "uint256",
          "name": "tokenId",
          "type": "uint256"
        }
      ],
      "name": "ERC721NonexistentToken",
      "type": "error"
    },
    {
      "inputs": [
        {
          "internalType": "address",
          "name": "owner",
          "type": "address"
        }
      ],
      "name": "OwnableInvalidOwner",
      "type": "error"
    },
    {
      "inputs": [
        {
          "internalType": "address",
          "name": "account",
          "type": "address"
        }
      ],
      "name": "OwnableUnauthorizedAccount",
      "type": "error"
    },
    {
      "anonymous": false,
      "inputs": [
        {
          "indexed": true,
          "internalType": "address",
          "name": "owner",
          "type": "address"
        },
        {
          "indexed": true,
          "internalType": "address",
          "name": "approved",
          "type": "address"
        },
        {
          "indexed": true,
          "internalType": "uint256",
          "name": "tokenId",
          "type": "uint256"
        }
      ],
      "name": "Approval",
      "type": "event"
    },
    {
      "anonymous": false,
      "inputs": [
        {
          "indexed": true,
          "internalType": "address",
          "name": "owner",
          "type": "address"
        },
        {
          "indexed": true,
          "internalType": "address",
          "name": "operator",
          "type": "address"
        },
        {
          "indexed": false,
          "internalType": "bool",
          "name": "approved",
          "type": "bool"
        }
      ],
      "name": "ApprovalForAll",
      "type": "event"
    },
    {
      "anonymous": false,
      "inputs": [
        {
          "indexed": true,
          "internalType": "address",
          "name": "freelancer",
          "type": "address"
        },
        {
          "indexed": true,
          "internalType": "uint256",
          "name": "tokenId",
          "type": "uint256"
        },
        {
          "indexed": false,
          "internalType": "enum EscrowNFT.BadgeLevel",
          "name": "level",
          "type": "uint8"
        }
      ],
      "name": "BadgeMinted",
      "type": "event"
    },
    {
      "anonymous": false,
      "inputs": [
        {
          "indexed": true,
          "internalType": "uint256",
          "name": "tokenId",
          "type": "uint256"
        },
        {
          "indexed": false,
          "internalType": "enum EscrowNFT.BadgeLevel",
          "name": "oldLevel",
          "type": "uint8"
        },
        {
          "indexed": false,
          "internalType": "enum EscrowNFT.BadgeLevel",
          "name": "newLevel",
          "type": "uint8"
        }
      ],
      "name": "BadgeUpgraded",
      "type": "event"
    },
    {
      "anonymous": false,
      "inputs": [
        {
          "indexed": false,
          "internalType": "uint256",
          "name": "_fromTokenId",
          "type": "uint256"
        },
        {
          "indexed": false,
          "internalType": "uint256",
          "name": "_toTokenId",
          "type": "uint256"
        }
      ],
      "name": "BatchMetadataUpdate",
      "type": "event"
    },
    {
      "anonymous": false,
      "inputs": [
        {
          "indexed": false,
          "internalType": "uint256",
          "name": "_tokenId",
          "type": "uint256"
        }
      ],
      "name": "MetadataUpdate",
      "type": "event"
    },
    {
      "anonymous": false,
      "inputs": [
        {
          "indexed": true,
          "internalType": "address",
          "name": "previousOwner",
          "type": "address"
        },
        {
          "indexed": true,
          "internalType": "address",
          "name": "newOwner",
          "type": "address"
        }
      ],
      "name": "OwnershipTransferred",
      "type": "event"
    },
    {
      "anonymous": false,
      "inputs": [
        {
          "indexed": true,
          "internalType": "address",
          "name": "from",
          "type": "address"
        },
        {
          "indexed": true,
          "internalType": "address",
          "name": "to",
          "type": "address"
        },
        {
          "indexed": true,
          "internalType": "uint256",
          "name": "tokenId",
          "type": "uint256"
        }
      ],
      "name": "Transfer",
      "type": "event"
    },
    {
      "inputs": [
        {
          "internalType": "address",
          "name": "to",
          "type": "address"
        },
        {
          "internalType": "uint256",
          "name": "tokenId",
          "type": "uint256"
        }
      ],
      "name": "approve",
      "outputs": [],
      "stateMutability": "nonpayable",
      "type": "function"
    },
    {
      "inputs": [
        {
          "internalType": "uint256",
          "name": "",
          "type": "uint256"
        }
      ],
      "name": "badges",
      "outputs": [
        {
          "internalType": "enum EscrowNFT.BadgeLevel",
          "name": "level",
          "type": "uint8"
        },
        {
          "internalType": "string",
          "name": "freelancerName",
          "type": "string"
        },
        {
          "internalType": "uint256",
          "name": "completedEscrows",
          "type": "uint256"
        },
        {
          "internalType": "uint256",
          "name": "mintedAt",
          "type": "uint256"
        }
      ],
      "stateMutability": "view",
      "type": "function"
    },
    {
      "inputs": [
        {
          "internalType": "address",
          "name": "owner",
          "type": "address"
        }
      ],
      "name": "balanceOf",
      "outputs": [
        {
          "internalType": "uint256",
          "name": "",
          "type": "uint256"
        }
      ],
      "stateMutability": "view",
      "type": "function"
    },
    {
      "inputs": [
        {
          "internalType": "address",
          "name": "",
          "type": "address"
        }
      ],
      "name": "freelancerBadge",
      "outputs": [
        {
          "internalType": "uint256",
          "name": "",
          "type": "uint256"
        }
      ],
      "stateMutability": "view",
      "type": "function"
    },
    {
      "inputs": [
        {
          "internalType": "uint256",
          "name": "tokenId",
          "type": "uint256"
        }
      ],
      "name": "getApproved",
      "outputs": [
        {
          "internalType": "address",
          "name": "",
          "type": "address"
        }
      ],
      "stateMutability": "view",
      "type": "function"
    },
    {
      "inputs": [
        {
          "internalType": "address",
          "name": "",
          "type": "address"
        }
      ],
      "name": "hasBadge",
      "outputs": [
        {
          "internalType": "bool",
          "name": "",
          "type": "bool"
        }
      ],
      "stateMutability": "view",
      "type": "function"
    },
    {
      "inputs": [
        {
          "internalType": "address",
          "name": "owner",
          "type": "address"
        },
        {
          "internalType": "address",
          "name": "operator",
          "type": "address"
        }
      ],
      "name": "isApprovedForAll",
      "outputs": [
        {
          "internalType": "bool",
          "name": "",
          "type": "bool"
        }
      ],
      "stateMutability": "view",
      "type": "function"
    },
    {
      "inputs": [
        {
          "internalType": "address",
          "name": "freelancer",
          "type": "address"
        },
        {
          "internalType": "string",
          "name": "freelancerName",
          "type": "string"
        },
        {
          "internalType": "uint256",
          "name": "completedEscrows",
          "type": "uint256"
        }
      ],
      "name": "mintBadge",
      "outputs": [
        {
          "internalType": "uint256",
          "name": "",
          "type": "uint256"
        }
      ],
      "stateMutability": "nonpayable",
      "type": "function"
    },
    {
      "inputs": [],
      "name": "name",
      "outputs": [
        {
          "internalType": "string",
          "name": "",
          "type": "string"
        }
      ],
      "stateMutability": "view",
      "type": "function"
    },
    {
      "inputs": [],
      "name": "owner",
      "outputs": [
        {
          "internalType": "address",
          "name": "",
          "type": "address"
        }
      ],
      "stateMutability": "view",
      "type": "function"
    },
    {
      "inputs": [
        {
          "internalType": "uint256",
          "name": "tokenId",
          "type": "uint256"
        }
      ],
      "name": "ownerOf",
      "outputs": [
        {
          "internalType": "address",
          "name": "",
          "type": "address"
        }
      ],
      "stateMutability": "view",
      "type": "function"
    },
    {
      "inputs": [],
      "name": "renounceOwnership",
      "outputs": [],
      "stateMutability": "nonpayable",
      "type": "function"
    },
    {
      "inputs": [
        {
          "internalType": "address",
          "name": "from",
          "type": "address"
        },
        {
          "internalType": "address",
          "name": "to",
          "type": "address"
        },
        {
          "internalType": "uint256",
          "name": "tokenId",
          "type": "uint256"
        }
      ],
      "name": "safeTransferFrom",
      "outputs": [],
      "stateMutability": "nonpayable",
      "type": "function"
    },
    {
      "inputs": [
        {
          "internalType": "address",
          "name": "from",
          "type": "address"
        },
        {
          "internalType": "address",
          "name": "to",
          "type": "address"
        },
        {
          "internalType": "uint256",
          "name": "tokenId",
          "type": "uint256"
        },
        {
          "internalType": "bytes",
          "name": "data",
          "type": "bytes"
        }
      ],
      "name": "safeTransferFrom",
      "outputs": [],
      "stateMutability": "nonpayable",
      "type": "function"
    },
    {
      "inputs": [
        {
          "internalType": "address",
          "name": "operator",
          "type": "address"
        },
        {
          "internalType": "bool",
          "name": "approved",
          "type": "bool"
        }
      ],
      "name": "setApprovalForAll",
      "outputs": [],
      "stateMutability": "nonpayable",
      "type": "function"
    },
    {
      "inputs": [
        {
          "internalType": "bytes4",
          "name": "interfaceId",
          "type": "bytes4"
        }
      ],
      "name": "supportsInterface",
      "outputs": [
        {
          "internalType": "bool",
          "name": "",
          "type": "bool"
        }
      ],
      "stateMutability": "view",
      "type": "function"
    },
    {
      "inputs": [],
      "name": "symbol",
      "outputs": [
        {
          "internalType": "string",
          "name": "",
          "type": "string"
        }
      ],
      "stateMutability": "view",
      "type": "function"
    },
    {
      "inputs": [
        {
          "internalType": "uint256",
          "name": "tokenId",
          "type": "uint256"
        }
      ],
      "name": "tokenURI",
      "outputs": [
        {
          "internalType": "string",
          "name": "",
          "type": "string"
        }
      ],
      "stateMutability": "view",
      "type": "function"
    },
    {
      "inputs": [
        {
          "internalType": "address",
          "name": "from",
          "type": "address"
        },
        {
          "internalType": "address",
          "name": "to",
          "type": "address"
        },
        {
          "internalType": "uint256",
          "name": "tokenId",
          "type": "uint256"
        }
      ],
      "name": "transferFrom",
      "outputs": [],
      "stateMutability": "nonpayable",
      "type": "function"
    },
    {
      "inputs": [
        {
          "internalType": "address",
          "name": "newOwner",
          "type": "address"
        }
      ],
      "name": "transferOwnership",
      "outputs": [],
      "stateMutability": "nonpayable",
      "type": "function"
    },
    {
      "inputs": [
        {
          "internalType": "uint256",
          "name": "tokenId",
          "type": "uint256"
        },
        {
          "internalType": "uint256",
          "name": "newCompletedEscrows",
          "type": "uint256"
        }
      ],
      "name": "upgradeBadge",
      "outputs": [],
      "stateMutability": "nonpayable",
      "type": "function"
    }
  ],
  "bytecode": "0x608060405234610384576126d96020813803918261001c81610388565b93849283398101031261038457516001600160a01b03811690819003610384576100466040610388565b90600b82526a457363726f77426164676560a81b60208301526100696040610388565b600681526545534342444760d01b602082015282519091906001600160401b038111610298575f54600181811c9116801561037a575b602082101461027a57601f8111610318575b506020601f82116001146102b757819293945f926102ac575b50508160011b915f199060031b1c1916175f555b81516001600160401b03811161029857600154600181811c9116801561028e575b602082101461027a57601f8111610217575b50602092601f82116001146101b657928192935f926101ab575b50508160011b915f199060031b1c1916176001555b801561019857600780546001600160a01b03198116831790915560405191906001600160a01b03167f8be0079c531659141344cd1fd0a4f28419497f9722a3daafe3b4186f6b6457e05f80a361232b90816103ae8239f35b631e4fbdf760e01b5f525f60045260245ffd5b015190505f8061012b565b601f1982169360015f52805f20915f5b8681106101ff57508360019596106101e7575b505050811b01600155610140565b01515f1960f88460031b161c191690555f80806101d9565b919260206001819286850151815501940192016101c6565b60015f527fb10e2d527612073b26eecdfd717e6a320cf44b4afac2b0732d9fcbe2b7fa0cf6601f830160051c81019160208410610270575b601f0160051c01905b8181106102655750610111565b5f8155600101610258565b909150819061024f565b634e487b7160e01b5f52602260045260245ffd5b90607f16906100ff565b634e487b7160e01b5f52604160045260245ffd5b015190505f806100ca565b601f198216905f8052805f20915f5b818110610300575095836001959697106102e8575b505050811b015f556100de565b01515f1960f88460031b161c191690555f80806102db565b9192602060018192868b0151815501940192016102c6565b5f80527f290decd9548b62a8d60345a988386fc84ba6bc95484008f6362f93160ef3e563601f830160051c81019160208410610370575b601f0160051c01905b81811061036557506100b1565b5f8155600101610358565b909150819061034f565b90607f169061009f565b5f80fd5b6040519190601f01601f191682016001600160401b038111838210176102985760405256fe6080806040526004361015610012575f80fd5b5f3560e01c90816301ffc9a714610de35750806306fdde0314610d41578063081812fc14610d05578063095ea7b314610c1b57806321e7aaeb14610be357806323b872dd14610bcc57806342842e0e14610b9d57806347dc883414610ae45780635e50864f14610aa75780636352211e14610a7757806370a0823114610a26578063715018a6146109cb578063824a5a2f1461049d5780638da5cb5b1461047557806395d89b41146103ab57806398e36d8b1461033d578063a22cb46514610289578063b88d4fde1461021b578063c87b56dd146101e4578063e985e9c51461018d5763f2fde38b14610103575f80fd5b346101895760203660031901126101895761011c610e8c565b61012461124c565b6001600160a01b0316801561017657600780546001600160a01b0319811683179091556001600160a01b03167f8be0079c531659141344cd1fd0a4f28419497f9722a3daafe3b4186f6b6457e05f80a3005b631e4fbdf760e01b5f525f60045260245ffd5b5f80fd5b34610189576040366003190112610189576101a6610e8c565b6101ae610ea2565b9060018060a01b03165f52600560205260405f209060018060a01b03165f52602052602060ff60405f2054166040519015158152f35b3461018957602036600319011261018957610217610203600435611e21565b604051918291602083526020830190610e68565b0390f35b3461018957608036600319011261018957610234610e8c565b61023c610ea2565b906044356064359267ffffffffffffffff8411610189573660238501121561018957610275610287943690602481600401359101610f4c565b92610281838383611067565b33611ceb565b005b34610189576040366003190112610189576102a2610e8c565b6024359081151580920361018957331561032a576001600160a01b031690811561031757335f52600560205260405f20825f5260205260405f2060ff1981541660ff83161790556040519081527f17307eab39ab6107e8899845ad3d59bd9653f200f220920489ca2b5937696c3160203392a3005b50630b61174360e31b5f5260045260245ffd5b63a9fbf51f60e01b5f525f60045260245ffd5b34610189576020366003190112610189576004355f52600960205261038b60405f2060ff8154169061037160018201610fba565b61039c60036002840154930154916040519586809661105a565b608060208601526080850190610e68565b91604084015260608301520390f35b34610189575f366003190112610189576040515f6001546103cb81610f82565b808452906001811690811561045157506001146103f3575b6102178361020381850382610f0e565b60015f9081527fb10e2d527612073b26eecdfd717e6a320cf44b4afac2b0732d9fcbe2b7fa0cf6939250905b808210610437575090915081016020016102036103e3565b91926001816020925483858801015201910190929161041f565b60ff191660208086019190915291151560051b8401909101915061020390506103e3565b34610189575f366003190112610189576007546040516001600160a01b039091168152602090f35b34610189576060366003190112610189576104b6610e8c565b60243567ffffffffffffffff81116101895736602382011215610189576104e7903690602481600401359101610f4c565b906044356104f361124c565b6001600160a01b0382165f818152600b602052604090205490939060ff1661097857600854915f198314610964576001830160085561053181611273565b916040519161053f83610ef2565b610549848461120c565b60208301918252604083019081526060830191428352855f52600960205260405f20935160048110156109505761058090856111f4565b518051600185019167ffffffffffffffff821161093c576105a18354610f82565b601f81116108f7575b50602090601f831160011461089057600395949392915f9183610885575b50508160011b915f1990871b1c19161790555b51600284015551910155835f52600b60205260405f20600160ff19825416179055835f52600a6020528160405f20556020926040519061061b8583610f0e565b5f82528515610872575f8481526002865260409020546001600160a01b03168015159081610841575b875f526003875260405f2060018154019055855f526002875260405f20886bffffffffffffffffffffffff60a01b8254161790558588827fddf252ad1be2c89b69c2b068fc378daa952ba7f163c4a11628f55a4df523b3ef5f80a45061082e573b6106f8575b50837f6e79522d33e3590933a0f11623ebc984abab3d341dd3e9b88e4e2503b15d9ab68484936106e26106dc866112a2565b86611b84565b6106ef604051809261105a565ba3604051908152f35b836107319160405180938192630a85bd0160e11b83523360048401525f6024840152876044840152608060648401526084830190610e68565b03815f895af15f91816107ee575b50610796575050503d5f1461078e573d9061075982610f30565b916107676040519384610f0e565b82523d5f8284013e5b8151918261078b5783633250574960e11b5f5260045260245ffd5b01fd5b606090610770565b929391926001600160e01b03191663757a42ff60e11b016107db57909291907f6e79522d33e3590933a0f11623ebc984abab3d341dd3e9b88e4e2503b15d9ab66106aa565b50633250574960e11b5f5260045260245ffd5b9091508481813d8311610827575b6108068183610f0e565b8101031261018957516001600160e01b03198116810361018957908661073f565b503d6107fc565b6339e3563760e11b5f525f60045260245ffd5b5f8681526004602052604080822080546001600160a01b031916905582825260038952902080545f19019055610644565b633250574960e11b5f525f60045260245ffd5b015190508b806105c8565b90601f19831691845f52815f20925f5b8181106108df575091600193918560039998979694106108c8575b505050811b0190556105db565b01515f1983891b60f8161c191690558b80806108bb565b929360206001819287860151815501950193016108a0565b835f5260205f20601f840160051c81019160208510610932575b601f0160051c01905b81811061092757506105aa565b5f815560010161091a565b9091508190610911565b634e487b7160e01b5f52604160045260245ffd5b634e487b7160e01b5f52602160045260245ffd5b634e487b7160e01b5f52601160045260245ffd5b60405162461bcd60e51b815260206004820152602560248201527f457363726f774e46543a20467265656c616e636572206a6120706f7373756920604482015264626164676560d81b6064820152608490fd5b34610189575f366003190112610189576109e361124c565b600780546001600160a01b031981169091555f906001600160a01b03167f8be0079c531659141344cd1fd0a4f28419497f9722a3daafe3b4186f6b6457e08280a3005b34610189576020366003190112610189576001600160a01b03610a47610e8c565b168015610a64575f526003602052602060405f2054604051908152f35b6322718ad960e21b5f525f60045260245ffd5b34610189576020366003190112610189576020610a95600435611218565b6040516001600160a01b039091168152f35b34610189576020366003190112610189576001600160a01b03610ac8610e8c565b165f52600b602052602060ff60405f2054166040519015158152f35b3461018957604036600319011261018957600435602435610b0361124c565b815f52600960205260ff60405f20610b2d610b278383541694806002850155611273565b826111f4565b610b3f610b39856112a2565b85611b84565b5416600482101561095057600481101561095057818103610b5c57005b7f21235a415738a3044ad3fbdf9850f23e19d01883fcc175783138a9d36737dcbf91610b9a604092610b908451809461105a565b602083019061105a565ba2005b3461018957610287610bae36610eb8565b9060405192610bbe602085610f0e565b5f8452610281838383611067565b3461018957610287610bdd36610eb8565b91611067565b34610189576020366003190112610189576001600160a01b03610c04610e8c565b165f52600a602052602060405f2054604051908152f35b3461018957604036600319011261018957610c34610e8c565b602435610c4081611218565b33151580610cf2575b80610cc5575b610cb25781906001600160a01b0384811691167f8c5be1e5ebec7d5bd14f71427d1e84f3dd0314c0f7b2291e5b200ac8c7c3b9255f80a45f90815260046020526040902080546001600160a01b0319166001600160a01b03909216919091179055005b63a9fbf51f60e01b5f523360045260245ffd5b506001600160a01b0381165f90815260056020908152604080832033845290915290205460ff1615610c4f565b506001600160a01b038116331415610c49565b3461018957602036600319011261018957600435610d2281611218565b505f526004602052602060018060a01b0360405f205416604051908152f35b34610189575f366003190112610189576040515f5f54610d6081610f82565b80845290600181169081156104515750600114610d87576102178361020381850382610f0e565b5f8080527f290decd9548b62a8d60345a988386fc84ba6bc95484008f6362f93160ef3e563939250905b808210610dc9575090915081016020016102036103e3565b919260018160209254838588010152019101909291610db1565b34610189576020366003190112610189576004359063ffffffff60e01b821680920361018957602091632483248360e11b8114908115610e25575b5015158152f35b6380ac58cd60e01b811491508115610e57575b8115610e46575b5083610e1e565b6301ffc9a760e01b14905083610e3f565b635b5e139f60e01b81149150610e38565b805180835260209291819084018484015e5f828201840152601f01601f1916010190565b600435906001600160a01b038216820361018957565b602435906001600160a01b038216820361018957565b6060906003190112610189576004356001600160a01b038116810361018957906024356001600160a01b0381168103610189579060443590565b6080810190811067ffffffffffffffff82111761093c57604052565b90601f8019910116810190811067ffffffffffffffff82111761093c57604052565b67ffffffffffffffff811161093c57601f01601f191660200190565b929192610f5882610f30565b91610f666040519384610f0e565b829481845281830111610189578281602093845f960137010152565b90600182811c92168015610fb0575b6020831014610f9c57565b634e487b7160e01b5f52602260045260245ffd5b91607f1691610f91565b9060405191825f825492610fcd84610f82565b80845293600181169081156110385750600114610ff4575b50610ff292500383610f0e565b565b90505f9291925260205f20905f915b81831061101c575050906020610ff2928201015f610fe5565b6020919350806001915483858901015201910190918492611003565b905060209250610ff294915060ff191682840152151560051b8201015f610fe5565b9060048210156109505752565b6001600160a01b0390911691908215610872575f828152600260205260409020546001600160a01b03169282903315158061115f575b508461112c575b805f52600360205260405f2060018154019055815f52600260205260405f20816bffffffffffffffffffffffff60a01b825416179055847fddf252ad1be2c89b69c2b068fc378daa952ba7f163c4a11628f55a4df523b3ef5f80a46001600160a01b031680830361111457505050565b6364283d7b60e01b5f5260045260245260445260645ffd5b5f82815260046020526040902080546001600160a01b0319169055845f52600360205260405f205f1981540190556110a4565b909150806111a3575b156111755782905f61109d565b828461118d57637e27328960e01b5f5260045260245ffd5b63177e802f60e01b5f523360045260245260445ffd5b5033841480156111d2575b8061116857505f838152600460205260409020546001600160a01b03163314611168565b505f84815260056020908152604080832033845290915290205460ff166111ae565b9060048110156109505760ff80198354169116179055565b60048210156109505752565b5f818152600260205260409020546001600160a01b031690811561123a575090565b637e27328960e01b5f5260045260245ffd5b6007546001600160a01b0316330361126057565b63118cdaa760e01b5f523360045260245ffd5b606481101561129c57603281101561129657600a1115611291575f90565b600190565b50600290565b50600390565b805f52600960205260405f2090604051906112bc82610ef2565b6112ca60ff8454168361120c565b6112d660018401610fba565b926020830193845260036002820154916040850192835201549060608401918252835160048110156109505761130b90611ed1565b935160048110156109505761131f90611f87565b92855190825161132e90612039565b604080517f3c73766720786d6c6e733d22687474703a2f2f7777772e77332e6f72672f32306020808301919091527f30302f737667222077696474683d2233353022206865696768743d2233353022928201929092527f2076696577426f783d223020302033353020333530223e00000000000000000060608201527f3c646566733e3c6c696e6561724772616469656e742069643d2262672220783160778201527f3d223025222079313d223025222078323d2231303025222079323d2231303025609782015261111f60f11b60b78201527f3c73746f70206f66667365743d22302522207374796c653d2273746f702d636f60b98201527f6c6f723a23306130613161222f3e3c73746f70206f66667365743d223130302560d98201527f22207374796c653d2273746f702d636f6c6f723a23316131613361222f3e000060f98201527f3c2f6c696e6561724772616469656e743e3c2f646566733e00000000000000006101178201527f3c726563742077696474683d2233353022206865696768743d2233353022207261012f8201527f783d223230222066696c6c3d2275726c2823626729222f3e000000000000000061014f8201527f3c636972636c652063783d22313735222063793d223132302220723d2236302261016782015274103334b6361e913737b732911039ba3937b5b29e9160591b61018782015288519098899392810191808361019c87015e7f22207374726f6b652d77696474683d223422206f7061636974793d22302e382261019c9186019182015261179f60f11b6101bc8201527f3c7465787420783d223137352220793d223133302220746578742d616e63686f6101be8201525f5160206122d65f395f51905f526101de8201527337b73a16b9b4bd329e911a1c11103334b6361e9160611b6101fe820152815190818461021283015e0161019c01906f111f13119c9b19991d9e17ba32bc3a1f60811b6076830152608682017f3c7465787420783d223137352220793d223139352220746578742d616e63686f905260a682015f5160206122d65f395f51905f52905260c682017f6f6e742d7765696768743d22626f6c642220666f6e742d73697a653d22313422905266103334b6361e9160c91b60e683015251809260ed83015e016076019361111f60f11b6077860152875160208901958187607983015e01607701600281017110232922a2a620a721a2a91e17ba32bc3a1f60711b9052601481017f3c7465787420783d223137352220793d223232302220746578742d616e63686f9052603481015f5160206122d65f395f51905f529052605481017f6f6e742d73697a653d223132222066696c6c3d2223616161616363223e000000905281516020819301607183015e01600201606f8101661e17ba32bc3a1f60c91b9052607681017f3c7465787420783d223137352220793d223235302220746578742d616e63686f9052609681015f5160206122d65f395f51905f52905260b681017f6f6e742d73697a653d223131222066696c6c3d2223383838386161223e00000090528151602081930160d383015e7f20657363726f777320636f6e636c7569646f733c2f746578743e000000000000910160d38101919091527f3c7465787420783d223137352220793d223331302220746578742d616e63686f60ed8201525f5160206122d65f395f51905f5261010d8201527f6f6e742d73697a653d223130222066696c6c3d2223353535353737223e50617961012d8201527f576562332050726f746f636f6c202d2056657269666965643c2f746578743e0061014d820152651e17b9bb339f60d11b61016c820152036101528101875261187c906101720187610f0e565b61188590612039565b9461188f906121a6565b9551915161189c90612039565b92516118a790612039565b93604051968796757b226e616d65223a22457363726f774261646765202360501b60208901528051602081920160368a015e8701603681016201016960ed1b90528251908185603983015e61088b60f21b603992909101918201527f226465736372697074696f6e223a224261646765206465206365727469666963603b8201527f6163616f20646520667265656c616e636572206e6f2070726f746f636f6c6f20605b8201526914185e55d9588ccb888b60b21b607b8201527f22696d616765223a22646174613a696d6167652f7376672b786d6c3b626173656085820152620d8d0b60ea1b60a5820152815191603682019183916020019060a8015e016003019061088b60f21b606f8301526d2261747472696275746573223a5b60901b6071830152607f82017f7b2274726169745f74797065223a224c6576656c222c2276616c7565223a22009052518092609e83015e01606f0162089f4b60ea1b602f820152603281017f7b2274726169745f74797065223a22467265656c616e636572222c2276616c7590526332911d1160e11b605282015281516020819301605683015e01602f0162089f4b60ea1b6027820152602a81017f7b2274726169745f74797065223a22436f6d706c6574656420457363726f77739052691116113b30b63ab2911d60b11b604a82015281516020819301605483015e01602701602d8101611f4b60f21b9052602f81017f7b2274726169745f74797065223a224d696e746564204174222c2276616c7565905261111d60f11b604f82015281516020819301605183015e01602d0160248101607d60f81b905260258101615d7d60f01b905203602401601c1981018252600301611b229082610f0e565b611b2b906121a6565b6040518091602082017f646174613a6170706c69636174696f6e2f6a736f6e3b6261736536342c000000905280516020819201603d84015e8101603d81015f905203603d01601f1981018252611b819082610f0e565b90565b919091805f52600660205260405f20835167ffffffffffffffff811161093c57611bae8254610f82565b601f8111611ca6575b506020601f8211600114611c1e57908060209493927ff8e1a15aba9398e019f0b49df1a4fde98ee17ae345cb5f6b5e2c27f5033e8ce796975f92611c13575b50508160011b915f199060031b1c19161790555b604051908152a1565b015190505f80611bf6565b601f19821695835f52815f20965f5b818110611c8e575096600192849260209796957ff8e1a15aba9398e019f0b49df1a4fde98ee17ae345cb5f6b5e2c27f5033e8ce7999a10611c76575b505050811b019055611c0a565b01515f1960f88460031b161c191690555f8080611c69565b83830151895560019098019760209384019301611c2d565b825f5260205f20601f830160051c81019160208410611ce1575b601f0160051c01905b818110611cd65750611bb7565b5f8155600101611cc9565b9091508190611cc0565b823b611cf9575b5050505050565b604051630a85bd0160e11b81526001600160a01b039182166004820152918116602483015260448201939093526080606482015291169160209082908190611d45906084830190610e68565b03815f865af15f9181611ddc575b50611da857503d15611da1573d611d6981610f30565b90611d776040519283610f0e565b81523d5f602083013e5b80519081611d9c5782633250574960e11b5f5260045260245ffd5b602001fd5b6060611d81565b6001600160e01b03191663757a42ff60e11b01611dca57505f80808080611cf2565b633250574960e11b5f5260045260245ffd5b9091506020813d602011611e19575b81611df860209383610f0e565b8101031261018957516001600160e01b03198116810361018957905f611d53565b3d9150611deb565b611e2a81611218565b50602090604051611e3b8382610f0e565b5f8152815f5260068352611e5160405f20610fba565b815115611eca5780849151611e8f57505050611e6c90611218565b505f604051611e7b8382610f0e565b52611e896040519182610f0e565b5f815290565b611b81935081906040519584879551918291018487015e8401908282015f8152815193849201905e01015f815203601f198101835282610f0e565b9250505090565b60048110156109505760038114611f615760028114611f3b57600114611f1657604051611eff604082610f0e565b600781526611a1a21ba3199960c91b602082015290565b604051611f24604082610f0e565b60078152660234330433043360cc1b602082015290565b50604051611f4a604082610f0e565b60078152660234646443730360cc1b602082015290565b50604051611f70604082610f0e565b600781526611a29aa29a229960c91b602082015290565b600481101561095057600381146120125760028114611fef57600114611fcb57604051611fb5604082610f0e565b600681526542524f4e5a4560d01b602082015290565b604051611fd9604082610f0e565b600681526529a4a62b22a960d11b602082015290565b50604051611ffe604082610f0e565b600481526311d3d31160e21b602082015290565b50604051612021604082610f0e565b6008815267504c4154494e554d60c01b602082015290565b805f9172184f03e93ff9f4daa797ed6e38ed64bf6a1f0160401b821015612183575b806d04ee2d6d415b85acef8100000000600a921015612168575b662386f26fc10000811015612154575b6305f5e100811015612143575b612710811015612134575b6064811015612126575b101561211b575b600a602160018401936120c085610f30565b946120ce6040519687610f0e565b8086526120dd601f1991610f30565b013660208701378401015b5f1901916f181899199a1a9b1b9c1cb0b131b232b360811b8282061a835304801561211657600a90916120e8565b505090565b6001909101906120ae565b6064600291049301926120a7565b6127106004910493019261209d565b6305f5e10060089104930192612092565b662386f26fc1000060109104930192612085565b6d04ee2d6d415b85acef810000000060209104930192612075565b506040915072184f03e93ff9f4daa797ed6e38ed64bf6a1f0160401b810461205b565b908151156122c5578151600281018091116109645760039004600281901b91906001600160fe1b0381160361096457604051917f4142434445464748494a4b4c4d4e4f505152535455565758595a616263646566601f527f6768696a6b6c6d6e6f707172737475767778797a303132333435363738392b2f603f52602083018480518101602081018051915f82525b808910612289575060209596975090600392915251068060011461227457600214612267575b50808452830101604052565b603d905f1901535f61225b565b50603d90815f1982015360011901535f61225b565b939760036004910198603f8a51818160121c165183538181600c1c16516001840153818160061c16516002840153165160038201530193612235565b9050604051611e89602082610f0e56fe723d226d6964646c652220666f6e742d66616d696c793d22417269616c222066a2646970667358221220fc63873aef1bcb774d576cc4caab3e695475649c6b2cb5bfc81a0a669adb33d864736f6c634300081c0033",
  "linkReferences": {},
  "deployedLinkReferences": {},
  "immutableReferences": {},
  "inputSourceName": "project/contracts/EscrowNFT.sol",
  "buildInfoId": "solc-0_8_28-a73ca197c6eb3e9cee377b23e8c1fe4ef225ef59"
}