{
  "_format": "hh3-artifact-1",
  "contractName": "Escrow",
  "sourceName": "contracts/Escrow.sol",
  "abi": [
    {
      "inputs": [],
      "stateMutability": "nonpayable",
      "type": "constructor"
    },
    {
      "anonymous": false,
      "inputs": [
        {
          "indexed": true,
          "internalType": "address",
          "name": "buyer",
          "type": "address"
        },
        {
          "indexed": true,
          "internalType": "address",
          "name": "seller",
          "type": "address"
        },
        {
          "indexed": false,
          "internalType": "uint256",
          "name": "amount",
          "type": "uint256"
        },
        {
          "indexed": false,
          "internalType": "uint256",
          "name": "fee",
          "type": "uint256"
        },
        {
          "indexed": false,
          "internalType": "uint256",
          "name": "timestamp",
          "type": "uint256"
        }
      ],
      "name": "InstantPaymentReleased",
      "type": "event"
    },
    {
      "anonymous": false,
      "inputs": [
        {
          "indexed": true,
          "internalType": "uint256",
          "name": "id",
          "type": "uint256"
        },
        {
          "indexed": true,
          "internalType": "address",
          "name": "buyer",
          "type": "address"
        },
        {
          "indexed": true,
          "internalType": "address",
          "name": "seller",
          "type": "address"
        },
        {
          "indexed": false,
          "internalType": "uint256",
          "name": "amount",
          "type": "uint256"
        },
        {
          "indexed": false,
          "internalType": "uint256",
          "name": "fee",
          "type": "uint256"
        },
        {
          "indexed": false,
          "internalType": "uint256",
          "name": "timestamp",
          "type": "uint256"
        }
      ],
      "name": "PaymentCreated",
      "type": "event"
    },
    {
      "anonymous": false,
      "inputs": [
        {
          "indexed": true,
          "internalType": "address",
          "name": "client",
          "type": "address"
        },
        {
          "indexed": true,
          "internalType": "address",
          "name": "freelancer",
          "type": "address"
        },
        {
          "indexed": false,
          "internalType": "uint256",
          "name": "amount",
          "type": "uint256"
        },
        {
          "indexed": false,
          "internalType": "uint256",
          "name": "paymentId",
          "type": "uint256"
        },
        {
          "indexed": false,
          "internalType": "uint256",
          "name": "timestamp",
          "type": "uint256"
        }
      ],
      "name": "PaymentDeposited",
      "type": "event"
    },
    {
      "anonymous": false,
      "inputs": [
        {
          "indexed": true,
          "internalType": "uint256",
          "name": "id",
          "type": "uint256"
        },
        {
          "indexed": true,
          "internalType": "address",
          "name": "seller",
          "type": "address"
        },
        {
          "indexed": false,
          "internalType": "uint256",
          "name": "amount",
          "type": "uint256"
        },
        {
          "indexed": false,
          "internalType": "uint256",
          "name": "timestamp",
          "type": "uint256"
        }
      ],
      "name": "PaymentReleased",
      "type": "event"
    },
    {
      "inputs": [],
      "name": "BASIS_POINTS",
      "outputs": [
        {
          "internalType": "uint256",
          "name": "",
          "type": "uint256"
        }
      ],
      "stateMutability": "view",
      "type": "function"
    },
    {
      "inputs": [],
      "name": "feeBasisPoints",
      "outputs": [
        {
          "internalType": "uint256",
          "name": "",
          "type": "uint256"
        }
      ],
      "stateMutability": "view",
      "type": "function"
    },
    {
      "inputs": [
        {
          "internalType": "address",
          "name": "seller",
          "type": "address"
        },
        {
          "internalType": "address",
          "name": "buyer",
          "type": "address"
        },
        {
          "internalType": "bool",
          "name": "isEscrow",
          "type": "bool"
        }
      ],
      "name": "pay",
      "outputs": [],
      "stateMutability": "payable",
      "type": "function"
    },
    {
      "inputs": [],
      "name": "paymentCount",
      "outputs": [
        {
          "internalType": "uint256",
          "name": "",
          "type": "uint256"
        }
      ],
      "stateMutability": "view",
      "type": "function"
    },
    {
      "inputs": [
        {
          "internalType": "uint256",
          "name": "",
          "type": "uint256"
        }
      ],
      "name": "payments",
      "outputs": [
        {
          "internalType": "address",
          "name": "buyer",
          "type": "address"
        },
        {
          "internalType": "address",
          "name": "seller",
          "type": "address"
        },
        {
          "internalType": "uint256",
          "name": "netAmount",
          "type": "uint256"
        },
        {
          "internalType": "bool",
          "name": "released",
          "type": "bool"
        },
        {
          "internalType": "uint256",
          "name": "createdAt",
          "type": "uint256"
        }
      ],
      "stateMutability": "view",
      "type": "function"
    },
    {
      "inputs": [],
      "name": "platformAdmin",
      "outputs": [
        {
          "internalType": "address",
          "name": "",
          "type": "address"
        }
      ],
      "stateMutability": "view",
      "type": "function"
    },
    {
      "inputs": [
        {
          "internalType": "uint256",
          "name": "id",
          "type": "uint256"
        }
      ],
      "name": "release",
      "outputs": [],
      "stateMutability": "nonpayable",
      "type": "function"
    },
    {
      "inputs": [
        {
          "internalType": "uint256",
          "name": "_newFee",
          "type": "uint256"
        }
      ],
      "name": "updateFee",
      "outputs": [],
      "stateMutability": "nonpayable",
      "type": "function"
    }
  ],
  "bytecode": "0x608060405260646001553480156013575f5ffd5b505f80546001600160a01b031916331790556108cc806100325f395ff3fe608060405260043610610079575f3560e01c8063b8606eef1161004c578063b8606eef14610172578063cdcd7fb514610187578063e1f1c4a7146101bd578063ed894e50146101d2575f5ffd5b80630937e68a1461007d57806337bdc99b146100a557806387d81789146100c65780639012c4a814610153575b5f5ffd5b348015610088575f5ffd5b5061009260025481565b6040519081526020015b60405180910390f35b3480156100b0575f5ffd5b506100c46100bf3660046107a1565b6101e5565b005b3480156100d1575f5ffd5b5061011e6100e03660046107a1565b600360208190525f9182526040909120805460018201546002830154938301546004909301546001600160a01b0392831694929091169260ff169085565b604080516001600160a01b0396871681529590941660208601529284019190915215156060830152608082015260a00161009c565b34801561015e575f5ffd5b506100c461016d3660046107a1565b610383565b34801561017d575f5ffd5b5061009260015481565b348015610192575f5ffd5b505f546101a5906001600160a01b031681565b6040516001600160a01b03909116815260200161009c565b3480156101c8575f5ffd5b5061009261271081565b6100c46101e03660046107d3565b610413565b5f81815260036020526040902080546001600160a01b031633146102505760405162461bcd60e51b815260206004820152601f60248201527f4170656e6173206f20636f6d707261646f7220706f6465206c6962657261720060448201526064015b60405180910390fd5b600381015460ff16156102975760405162461bcd60e51b815260206004820152600f60248201526e4a6120666f69206c6962657261646f60881b6044820152606401610247565b5f8160020154116102e15760405162461bcd60e51b8152602060048201526014602482015273506167616d656e746f206e616f2065786973746560601b6044820152606401610247565b60038101805460ff1916600190811790915581015460028201546040516001600160a01b039092169181156108fc0291905f818181858888f1935050505015801561032e573d5f5f3e3d5ffd5b5060018101546002820154604080519182524260208301526001600160a01b039092169184917f8cdc8dc08e54a4e57f52077ecf1b4c508758513439cae2aa325dcc85b922fca8910160405180910390a35050565b5f546001600160a01b031633146103cb5760405162461bcd60e51b815260206004820152600c60248201526b20b832b730b99030b236b4b760a11b6044820152606401610247565b6101f481111561040e5760405162461bcd60e51b815260206004820152600e60248201526d54617861206d6178696d6120352560901b6044820152606401610247565b600155565b5f34116104625760405162461bcd60e51b815260206004820152601d60248201527f56616c6f72206465766520736572206d61696f7220717565207a65726f0000006044820152606401610247565b6001600160a01b0383166104aa5760405162461bcd60e51b815260206004820152600f60248201526e53656c6c657220696e76616c69646f60881b6044820152606401610247565b6001600160a01b0382166104f15760405162461bcd60e51b815260206004820152600e60248201526d427579657220696e76616c69646f60901b6044820152606401610247565b5f61271060015434610503919061082f565b61050d919061084c565b90505f61051a823461086b565b905082156106c7576040805160a0810182526001600160a01b03808716825287811660208084019182528385018681525f60608601818152426080880190815260028054845260039586905298909220965187549087166001600160a01b0319918216178855945160018801805491909716951694909417909455519484019490945551928201805493151560ff1990941693909317909255905160049091015581156105f9575f80546040516001600160a01b039091169184156108fc02918591818181858888f193505050501580156105f7573d5f5f3e3d5ffd5b505b846001600160a01b0316846001600160a01b03166002547f56a99ddeb1d8f1930a400f6ceb2281c44b9ccaf7472d1ff2d872cf1ce3798491848642604051610654939291909283526020830191909152604082015260600190565b60405180910390a46002546040805183815260208101929092524282820152516001600160a01b0387811692908716917f5fe4b2192a2c3f99393d31627e72b1d1b4fa5510c929423d6097ad95598c86329181900360600190a360028054905f6106bd8361087e565b919050555061079a565b6040516001600160a01b0386169082156108fc029083905f818181858888f193505050501580156106fa573d5f5f3e3d5ffd5b508115610739575f80546040516001600160a01b039091169184156108fc02918591818181858888f19350505050158015610737573d5f5f3e3d5ffd5b505b846001600160a01b0316846001600160a01b03167f08eef3f1d5d33801951e6213f9115b2b7acaa169bcb75f31ae617f96b298b88a838542604051610791939291909283526020830191909152604082015260600190565b60405180910390a35b5050505050565b5f602082840312156107b1575f5ffd5b5035919050565b80356001600160a01b03811681146107ce575f5ffd5b919050565b5f5f5f606084860312156107e5575f5ffd5b6107ee846107b8565b92506107fc602085016107b8565b915060408401358015158114610810575f5ffd5b809150509250925092565b634e487b7160e01b5f52601160045260245ffd5b80820281158282048414176108465761084661081b565b92915050565b5f8261086657634e487b7160e01b5f52601260045260245ffd5b500490565b818103818111156108465761084661081b565b5f6001820161088f5761088f61081b565b506001019056fea26469706673582212209a2a226237af8c9acdfdb6c57fa79159df99015663d2c0ab4f5002d7f2d905bd64736f6c634300081c0033",
  "linkReferences": {},
  "deployedLinkReferences": {},
  "immutableReferences": {},
  "inputSourceName": "project/contracts/Escrow.sol",
  "buildInfoId": "solc-0_8_28-8a35b998f41dd82fe595c63aced05a9a38c98129"
}